S01E00004D61747269782D446973706C61792D352D44696769742E737265630E
S11300000C9422010C943F010C943F010C943F0189
S11300100C943F010C943F010C943F010C943F015C
S11300200C943F010C943F010C943F010C943F014C
S11300300C943F010C943F010C943F010C943F013C
S11300400C943F010C943F010C943F010C943F012C
S11300500C943F010C943F010C943F010C943F011C
S11300600C943F010C943F01000000000000005F6D
S113007000000007000700147F147F14242A7F2A3D
S113008012231308646236495620500008070300FF
S1130090001C2241000041221C002A1C7F1C2A084B
S11300A0083E0808008070300008080808080000AE
S11300B060600020100804023E5149453E00427F22
S11300C0400072494949462141494D331814127F71
S11300D01027454545393C4A494931412111090711
S11300E03649494936464949291E00001400000092
S11300F04034000000081422411414141414004164
S113010022140802015909063E415D594E7C121120
S1130110127C7F494949363E414141227F41414158
S11301203E7F494949417F090909013E41415173D3
S11301307F0808087F00417F41002040413F017F44
S1130140081422417F404040407F021C027F7F040C
S113015008107F3E4141413E7F090909063E415155
S1130160215E7F09192946264949493203017F0145
S1130170033F4040403F1F2040201F3F4038403F46
S1130180631408146303047804036159494D43005C
S11301907F4141410204081020004141417F040293
S11301A0010204404040404000030708002054542A
S11301B078407F2844443838444444283844442808
S11301C07F385454541800087E090218A4A49C785B
S11301D07F0804047800447D40002040403D007FB7
S11301E01028440000417F40007C047804787C0897
S11301F00404783844444438FC182424181824246B
S113020018FC7C08040408485454542404043F444F
S1130210243C4040207C1C2040201C3C4030403C7E
S113022044281028444C9090907C4464544C4400DE
S11302300836410000007700000041360800020142
S11302400204020011241FBECFEFD8E0DEBFCDBFF1
S113025012E0A0E0B1E0ECE6FFE302C005900D92ED
S1130260A831B107D9F722E0A8E1B2E001C01D929C
S1130270A138B207E1F70E94C8060C94B41F0C948D
S11302800000CF92DF92EF92FF920F931F93CF93D0
S1130290DF93DC0184E0E82E81E0F82E40E050E0BA
S11302A021E030E0B901042E01C0660F0A94EAF798
S11302B0862F58969C915897692309F006C15D983A
S11302C097E15A98FD01E90FF11D6081682309F057
S11302D0FAC059985B9A5B986FEF690FFD01E60FBE
S11302E0F11D6081682309F0ECC059985B9A5B9812
S11302F06EEF690FFD01E60FF11D6081682309F0BF
S1130300DEC059985B9A5B986DEF690FFD01E60FAB
S1130310F11D6081682309F0D0C059985B9A5B98FD
S11303206CEF690FFD01E60FF11D6081682309F090
S1130330C2C059985B9A5B986BEF690FFD01E60F99
S1130340F11D6081682309F0B4C059985B9A5B98E9
S11303506AEF690FFD01E60FF11D6081682309F062
S1130360A6C059985B9A5B9869EF690FFD01E60F87
S1130370F11D6081682309F098C059985B9A5B98D5
S113038098505A9A9F3F09F09CCFC4E0D1E0E9917C
S1130390EE23F9F0EC3CD8F767E0E69FF001112476
S11303A0CF01845B9E4F6C01FC0102811381F80133
S11303B07081C901F601068002C0880F991F0A9452
S11303C0E2F7682F60956723F8016083E991E111F2
S11303D0E1CFE701E9917E01EC3C08F478C080911B
S11303E000019091010197FD08C0EFE9FFE031970A
S11303F0F1F700C000000197C0F7C4E0D1E0E99133
S1130400EE23F9F0EC3CD8F767E0E69FF001112405
S1130410CF01845B9E4F6C01FC0102811381F801C2
S11304207081C901F601068002C0880F991F0A94E1
S1130430E2F7682F60956723F8016083E991E11181
S1130440E1CF5D9884E090E05A9859985B9A5B9864
S113045059985B9A5B9859985B9A5B9859985B9A00
S11304605B9859985B9A5B9859985B9A5B985998F2
S11304705B9A5B9859985B9A5B985A9A019721F713
S11304804F5F5F4F4730510509F00CCF81E090E09A
S11304909093010180930001DF91CF911F910F91FF
S11304A0FF90EF90DF90CF900895599A67CF599AB3
S11304B059CF599A4BCF599A3DCF599A2FCF599A20
S11304C021CF599A13CF599A05CF5D9AF9CED7E027
S11304D0ED9FF0011124E45BFE4FC281D3811881AA
S11304E0C901068002C0880F991F0A94E2F7812B84
S11304F0888375CF4F925F926F927F928F929F9273
S1130500AF92BF92CF92DF92EF92FF920F931F931D
S1130510CF93DF9329E1E3E6F2E0DF01C22F1D92DE
S1130520CA95E9F7E8E1F2E0DF011D922A95E9F7BF
S11305303C01F1E88F2EF2E09F2E21E030E0AA2466
S1130540A394B12C81E090E0D3014D913D0144236B
S113055009F457C24052B5E04B9FA0011124FA019F
S1130560E859FF4FE491E0937C02FA01E759FF4F09
S1130570E491E0937D02FA01E659FF4FE491E093A0
S11305807E02FA01E559FF4FE491E0937F02FA01FC
S1130590E459FF4F4491409380026CE772E0EB0111
S11305A05991BE0149E1E3E6F2E0A8E1B2E001902D
S11305B00D924A95E1F750937B02409130024093AB
S11305C07A02E7E1E1504E2F50E0DA01AD59BD4F18
S11305D0EA01C85EDD4F49814C93E111F3CF1AE083
S11305E0E4E04E2EE1E05E2E40E050E0F901042EFE
S11305F001C0EE0F0A94EAF7FE2FA0917B02EA23D2
S113060009F03DC35D98E7E15A98AE2FB0E0AD59CB
S1130610BD4FAC91AF2309F030C359985B9A5B98F6
S1130620AFEFAE0FB0E0AD59BD4FAC91AF2309F0C1
S113063022C359985B9A5B98AEEFAE0FB0E0AD5908
S1130640BD4FAC91AF2309F014C359985B9A5B98E2
S1130650ADEFAE0FB0E0AD59BD4FAC91AF2309F093
S113066006C359985B9A5B98ACEFAE0FB0E0AD59F6
S1130670BD4FAC91AF2309F0F8C259985B9A5B98CF
S1130680ABEFAE0FB0E0AD59BD4FAC91AF2309F065
S1130690EAC259985B9A5B98AAEFAE0FB0E0AD59E5
S11306A0BD4FAC91AF2309F0DCC259985B9A5B98BB
S11306B0A9EFAE0FB0E0AD59BD4FAC91AF2309F037
S11306C0CEC259985B9A5B98E8505A9AEF3F09F06A
S11306D09BCFA4E0B1E0ED91EE23C9F0EC3CD8F758
S11306E0D7E0ED9FF0011124E45BFE4FC281D3817A
S11306F0C8807901068002C0EE0CFF1C0A94E2F760
S1130700F701E095EC21E883ED91E111E7CFD20107
S1130710ED912D01EC3C08F4B4C2E0910001F0919C
S11307200101F7FD08C0AFE9BFE01197F1F700C080
S113073000003197C0F7A4E0B1E0ED91EE23C9F0D9
S1130740EC3CD8F7C7E0EC9FF0011124E45BFE4FCA
S1130750C281D381C8807901068002C0EE0CFF1CDF
S11307600A94E2F7F701E095EC21E883ED91E111B9
S1130770E7CF5D98E4E0F0E05A9859985B9A5B986B
S113078059985B9A5B9859985B9A5B9859985B9ACD
S11307905B9859985B9A5B9859985B9A5B985998BF
S11307A05B9A5B9859985B9A5B985A9A319721F7B0
S11307B04F5F5F4F4730510509F018CF9093010107
S11307C080930001115009F00BCF8616970609F0AB
S11307D0E6CE49E1E3E6F2E0A8E1B2E001900D9251
S11307E04A95E1F710927B024091300240937A02DD
S11307F047E14150642F70E0FB01ED59FD4FDB01EF
S1130800A85EBD4F11965C9150834111F2CF7AE0FE
S1130810F72E64E071E040E050E0F901042E01C0DD
S1130820EE0F0A94EAF7FE2FA0917B02EA2309F067
S11308304CC25D98E7E15A98AE2FB0E0AD59BD4F78
S1130840AC91AF2309F03FC259985B9A5B98AFEF24
S1130850AE0FB0E0AD59BD4FAC91AF2309F031C23A
S113086059985B9A5B98AEEFAE0FB0E0AD59BD4FAF
S1130870AC91AF2309F023C259985B9A5B98ADEF12
S1130880AE0FB0E0AD59BD4FAC91AF2309F015C226
S113089059985B9A5B98ACEFAE0FB0E0AD59BD4F81
S11308A0AC91AF2309F007C259985B9A5B98ABEF00
S11308B0AE0FB0E0AD59BD4FAC91AF2309F0F9C113
S11308C059985B9A5B98AAEFAE0FB0E0AD59BD4F53
S11308D0AC91AF2309F0EBC159985B9A5B98A9EFEF
S11308E0AE0FB0E0AD59BD4FAC91AF2309F0DDC1FF
S11308F059985B9A5B98E8505A9AEF3F09F09BCF5E
S1130900A4E0B1E0ED91EE23C9F0EC3CD8F707E0A8
S1130910E09FF0011124E45BFE4FC281D381E880A3
S11309206901068002C0CC0CDD1C0A94E2F7F601D2
S1130930E095EE21E883ED91E111E7CFDB01ED9144
S1130940BD01EC3C08F4C3C1E0910001F091010148
S1130950F7FD08C0AFE9BFE01197F1F700C0000050
S11309603197C0F7A4E0B1E0ED91EE23C9F0EC3C7F
S1130970D8F7C7E0EC9FF0011124E45BFE4FC2817D
S1130980D381E8806901068002C0CC0CDD1C0A9486
S1130990E2F7F601E095EE21E883ED91E111E7CF6E
S11309A05D98E4E0F0E05A9859985B9A5B985998FE
S11309B05B9A5B9859985B9A5B9859985B9A5B9899
S11309C059985B9A5B9859985B9A5B9859985B9A8B
S11309D05B9859985B9A5B985A9A319721F74F5FC5
S11309E05F4F4730510509F018CFB0920101A09232
S11309F00001FA94F1100DCFD3014D913D01411145
S1130A00A9CD29E130E081E090E041E050E069E1E6
S1130A10E3E6F2E0A8E1B2E001900D926A95E1F715
S1130A2010927B026091300260937A02E7E1E15018
S1130A306E2F70E0DB01AD59BD4FEB01C85EDD4F99
S1130A4069816C93E111F3CF1AE064E0E62E61E072
S1130A50F62E60E070E0FC01062E01C0EE0F0A9451
S1130A60EAF7FE2FC0917B02EC2309F054C15D9894
S1130A70E7E15A98CE2FD0E0CD59DD4FC881CF237E
S1130A8009F047C159985B9A5B98CFEFCE0FD0E03D
S1130A90CD59DD4FC881CF2309F039C159985B9AEC
S1130AA05B98CEEFCE0FD0E0CD59DD4FC881CF2378
S1130AB009F02BC159985B9A5B98CDEFCE0FD0E02B
S1130AC0CD59DD4FC881CF2309F01DC159985B9AD8
S1130AD05B98CCEFCE0FD0E0CD59DD4FC881CF234A
S1130AE009F00FC159985B9A5B98CBEFCE0FD0E019
S1130AF0CD59DD4FC881CF2309F001C159985B9AC4
S1130B005B98CAEFCE0FD0E0CD59DD4FC881CF231B
S1130B1009F0F3C059985B9A5B98C9EFCE0FD0E007
S1130B20CD59DD4FC881CF2309F0E5C059985B9AB0
S1130B305B98E8505A9AEF3F09F09BCFC4E0D1E0AC
S1130B40E991EE23C9F0EC3CD8F7B7E0EB9FF00154
S1130B501124E45BFE4FA281B3810C916C010680E9
S1130B6002C0CC0CDD1C0A94E2F7F601E095E02308
S1130B70EC93E991E111E7CFD701ED917D01EC3CD4
S1130B8008F4CBC0E0910001F0910101F7FD08C029
S1130B90AFE9BFE01197F1F700C000003197C0F74B
S1130BA0C4E0D1E0E991EE23C9F0EC3CD8F707E0CA
S1130BB0E09FF0011124E45BFE4FA281B3810C910C
S1130BC06C01068002C0CC0CDD1C0A94E2F7F6012D
S1130BD0E095E023EC93E991E111E7CF5D98E4E03F
S1130BE0F0E05A9859985B9A5B9859985B9A5B988D
S1130BF059985B9A5B9859985B9A5B9859985B9A59
S1130C005B9859985B9A5B9859985B9A5B9859984A
S1130C105B9A5B985A9A319721F76F5F7F4F6730E1
S1130C20710509F018CF5093010140930001115050
S1130C3009F00BCF2150310909F0E9CEDF91CF91B2
S1130C401F910F91FF90EF90DF90CF90BF90AF90E6
S1130C509F908F907F906F905F904F900895599AD6
S1130C6031CD599A23CD599A15CD599A07CD599A10
S1130C70F9CC599AEBCC599ADDCC599ACFCC5D9AE0
S1130C80C2CCB7E0EB9FF0011124E45BFE4FA281DC
S1130C90B381FC90E901068002C0CC0FDD1F0A94E9
S1130CA0E2F7FE01EF29EC9338CD599A22CE599AF6
S1130CB014CE599A06CE599AF8CD599AEACD599A32
S1130CC0DCCD599ACECD599AC0CD5D9AB3CDB7E05B
S1130CD0EB9FF0011124E45BFE4FA281B3811C91D0
S1130CE0E901068002C0CC0FDD1F0A94E2F7FE0181
S1130CF0E12BEC9329CE599A1ACF599A0CCF599AD1
S1130D00FECE599AF0CE599AE2CE599AD4CE599A37
S1130D10C6CE599AB8CE5D9AABCEB7E0EB9FF00140
S1130D201124E45BFE4FC281D38108816C010680EB
S1130D3002C0CC0CDD1C0A94E2F7F601E02BE88338
S1130D4021CFCF93DF93519A529A539A559AA4E0A4
S1130D50B1E041E050E0ED91EE23B9F0EC3CD8F77E
S1130D6087E0E89FF0011124E45BFE4FC081D1814C
S1130D702881CA01068002C0880F991F0A94E2F7ED
S1130D80822B8883ED91E111E9CFDF91CF91089512
S1130D90CF93DF9300D000D0CDB7DEB70E94A10679
S1130DA071E3272E72E0372EE9E17E2E88248394A6
S1130DB0912CEE24E394F12C8101A4E0B1E01DC058
S1130DC0EC3CD8F427E0E29FF0011124AF01445B2E
S1130DD05E4FFA0122813381F901808144244394D6
S1130DE0512CFA01068002C0440C551C0A94E2F707
S1130DF0A20140958423F9018083ED91E111E0CFB4
S1130E005D9884E090E05A9859985B9A5B98599859
S1130E105B9A5B9859985B9A5B9859985B9A5B9834
S1130E2059985B9A5B9859985B9A5B9859985B9A26
S1130E305B9859985B9A5B985A9A019721F780E2DC
S1130E4091E00E947A02D101E72D1D92EA95E9F71B
S1130E504CE1C42E41E0D42ED60120E08DE4805232
S1130E60F5E08F9FC0011124FC01E859FF4F349134
S1130E70E22FF0E0EF5CFD4F3083FC01E759FF4FB8
S1130E803491E1E0E20FF0E0EF5CFD4F3083FC01D0
S1130E90E659FF4F3491E2E0E20FF0E0EF5CFD4FE2
S1130EA03083FC01E559FF4F3491E3E0E20FF0E0B9
S1130EB0EF5CFD4F3083FC01E459FF4F349184E033
S1130EC0820F90E08F5C9D4FFC013083E5E0E20FE0
S1130ED0F0E0EF5CFD4F10822A5F8D918111BFCF4E
S1130EE034E0B32E2AE0A22E81E392E00E94410175
S1130EF0AA94A110F9CFA4E0B1E0ED91EE2301F1A1
S1130F00EC3CD8F727E0E29FF0011124AF01445BE9
S1130F105E4FFA0122813381F90180814424439494
S1130F20512CFA01068002C0440C551C0A94E2F7C5
S1130F30A20140958423F9018083ED91E111E0CF72
S1130F405D9884E090E05A9859985B9A5B98599818
S1130F505B9A5B9859985B9A5B9859985B9A5B98F3
S1130F6059985B9A5B9859985B9A5B9859985B9AE5
S1130F705B9859985B9A5B985A9A019721F7FFEF0F
S1130F8029E638E1F15020403040E1F700C000008C
S1130F90BA94B110A7CFD101E72D1D92EA95E9F7D4
S1130FA020E08DE48052F5E08F9FC0011124FC0104
S1130FB0E859FF4F3491E22FF0E0EF5CFD4F3083AE
S1130FC0FC01E759FF4F3491E1E0E20FF0E0EF5C00
S1130FD0FD4F3083FC01E659FF4F3491E2E0E20F0C
S1130FE0F0E0EF5CFD4F3083FC01E559FF4F349195
S1130FF0E3E0E20FF0E0EF5CFD4F3083FC01E459E5
S1131000FF4FE491A4E0A20FB0E0AF5CBD4FEC93BE
S1131010E5E0E20FF0E0EF5CFD4F10822A5FD601BD
S11310208D916D018111BECF40E050E01A83098398
S1131030642F80E090E0E0910201F0910301E80F59
S1131040F91F108201966817B0F7862F90E0FC0113
S1131050E41BF50BEF5CFD4F2081E0910201F09160
S11310600301E80FF91F20836F5F693171F71AE0FC
S1131070C12E64E0A62E61E0B62E20E030E081E0CF
S113108090E0022E01C0880F0A94EAF7982F60912D
S11310906202862311F00C94061D5D9887E15A982C
S11310A0E82FF0E0E65BFD4F6081692311F00C94BA
S11310B0031D59985B9A5B98EFEFE80FF0E0E65B4D
S11310C0FD4F6081692311F00C94001D59985B9ABF
S11310D05B98EEEFE80FF0E0E65BFD4F608169237B
S11310E011F00C94FD1C59985B9A5B98EDEFE80F96
S11310F0F0E0E65BFD4F6081692311F00C94FA1C6B
S113110059985B9A5B98ECEFE80FF0E0E65BFD4FD3
S11311106081692311F00C94F71C59985B9A5B98D1
S1131120EBEFE80FF0E0E65BFD4F6081692311F01F
S11311300C94F41C59985B9A5B98EAEFE80FF0E082
S1131140E65BFD4F6081692311F00C94F11C599802
S11311505B9A5B98E9EFE80FF0E0E65BFD4F608196
S1131160692311F00C94EE1C59985B9A5B98885093
S11311705A9A8F3F09F093CFA4E0B1E0ED91EE23AA
S113118001F1EC3CD8F707E0E09FF00111248F0156
S1131190045B1E4FF80162817381FB01908144243A
S11311A04394512CF801068002C0440C551C0A9447
S11311B0E2F7842D80958923FB018083ED91E11171
S11311C0E0CFD501ED915D01EC3C10F40C94091DC8
S11311D0809100019091010197FD08C0EFE9FFE0C3
S11311E03197F1F700C000000197C0F7A4E0B1E027
S11311F0ED91EE2301F1EC3CD8F707E0E09FF0011C
S113120011248F01045B1E4FF80162817381FB017D
S1131210908144244394512CF801068002C0440C6C
S1131220551C0A94E2F7842D80958923FB01808361
S1131230ED91E111E0CF5D9884E090E05A985998DF
S11312405B9A5B9859985B9A5B9859985B9A5B9800
S113125059985B9A5B9859985B9A5B9859985B9AF2
S11312605B9859985B9A5B9859985B9A5B985A9AE1
S1131270019721F72F5F3F4F2730310509F0FFCE4B
S1131280F0920101E0920001CA94C110F2CE4F5FC6
S11312905F4F4931510509F0CBCE09811A81D10143
S11312A0E72D1D92EA95E9F747E151E05A83498316
S11312B0DA0140E088E4805255E0859FC0011124A2
S11312C0FC01E859FF4F5491642F70E06F5C7D4F2F
S11312D0FB015083FC01E759FF4F549161E0640F17
S11312E070E06F5C7D4FFB015083FC01E659FF4FBA
S11312F0549162E0640F70E06F5C7D4FFB0150839A
S1131300FC01E559FF4F549163E0640F70E06F5C9A
S11313107D4FFB015083FC01E459FF4F8491E4E0CD
S1131320E40FF0E0EF5CFD4F8083E5E0E40FF0E0D4
S1131330EF5CFD4F10824A5F8D918111BCCF622F0B
S1131340B1E32B2EB2E03B2EF101CF018153924049
S1131350A0910201B0910301A80FB91F8191062E3B
S113136001C0880F0A94EAF78C935AE4452E52E0A0
S1131370552E4E165F0649F7A0910201B091030164
S11313804AE0A42E94E0C92E91E0D92E40E050E02A
S113139081E090E0042E01C0880F0A94EAF7982FA8
S11313A058966C915897862311F00C94361D5D98CD
S11313B087E15A98FD01E80FF11D6081692311F05E
S11313C00C94331D59985B9A5B986FEF680FFD017D
S11313D0E60FF11D6081692311F00C94301D5998BA
S11313E05B9A5B986EEF680FFD01E60FF11D60815B
S11313F0692311F00C942D1D59985B9A5B986DEF3D
S1131400680FFD01E60FF11D6081692311F00C9452
S11314102A1D59985B9A5B986CEF680FFD01E60FE3
S1131420F11D6081692311F00C94271D59985B9A72
S11314305B986BEF680FFD01E60FF11D6081692376
S113144011F00C94241D59985B9A5B986AEF680F0D
S1131450FD01E60FF11D6081692311F00C94211D3B
S113146059985B9A5B9869EF680FFD01E60FF11DCF
S11314706081692311F00C941E1D59985B9A5B9846
S113148088505A9A8F3F09F094CF84E091E02D015F
S11314906A2CDC01ED91CD01EE23F1F0EC3CC8F7B0
S11314A067E0E69FF0011124E45BFE4FA280B38065
S11314B0D5017C91A1E0B0E0068002C0AA0FBB1F59
S11314C00A94E2F76A2F60956723F5016083DC01D3
S11314D0ED91CD01E111E2CFD201A62CF60191915B
S11314E06F019C3C10F40C94391D80910001909183
S11314F0010197FD08C0EFE9FFE03197F1F700C063
S113150000000197C0F784E091E02D016A2CDC0112
S1131510ED91CD01EE23F1F0EC3CC8F767E0E69FD6
S1131520F0011124E45BFE4FA280B380D5017C91CD
S1131530A1E0B0E0068002C0AA0FBB1F0A94E2F744
S11315406A2F60956723F5016083DC01ED91CD017D
S1131550E111E2CFD201A62C5D9884E090E05A9884
S113156059985B9A5B9859985B9A5B9859985B9ADF
S11315705B9859985B9A5B9859985B9A5B985998D1
S11315805B9A5B9859985B9A5B9859985B9A5B98BD
S11315905A9A019721F74F5F5F4F4730510509F081
S11315A0F7CEF0920101E0920001AA94A110EACED4
S11315B02150310909F0C3CE8AE0D82E81E392E0AC
S11315C00E944101DA94D110F9CFF801472C11920D
S11315D04A94E9F7A7E1B1E020E088E4805235E0DD
S11315E0839FC0011124FC01E859FF4F3491E22F7D
S11315F0F0E0EF5CFD4F3083FC01E759FF4F34917D
S1131600E1E0E20FF0E0EF5CFD4F3083FC01E659CE
S1131610FF4F3491E2E0E20FF0E0EF5CFD4F3083E6
S1131620FC01E559FF4F3491E3E0E20FF0E0EF5C99
S1131630FD4F3083FC01E459FF4F8491E4E0E20F55
S1131640F0E0EF5CFD4F8083E5E0E20FF0E0EF5C5B
S1131650FD4F10822A5F8D918111C0CFA2E3DA2E53
S113166064E0A62E61E0B62E80E090E021E030E058
S1131670082E01C0220F0A94EAF7322F4091490242
S1131680242311F00C946C1D5D9827E15A98E22FE5
S1131690F0E0EF5CFD4F4081432311F00C94691D91
S11316A059985B9A5B98EFEFE20FF0E0EF5CFD4F27
S11316B04081432311F00C94661D59985B9A5B9802
S11316C0EEEFE20FF0E0EF5CFD4F4081432311F0B9
S11316D00C94631D59985B9A5B98EDEFE20FF0E070
S11316E0EF5CFD4F4081432311F00C94601D599829
S11316F05B9A5B98ECEFE20FF0E0EF5CFD4F40810A
S1131700432311F00C945D1D59985B9A5B98EBEFA1
S1131710E20FF0E0EF5CFD4F4081432311F00C94A5
S11317205A1D59985B9A5B98EAEFE20FF0E0EF5C80
S1131730FD4F4081432311F00C94571D59985B9A37
S11317405B98E9EFE20FF0E0EF5CFD4F408143234B
S113175011F00C94541D59985B9A5B9828505A9A2E
S11317602F3F09F093CFA4E0B1E06D2CED91EE236F
S113177001F1EC3CD8F747E0E49FF0011124BF01EC
S1131780645B7E4FFB0142815381FA013081442422
S11317904394512CFB01068002C0440C551C0A944E
S11317A0E2F7242D20952323FA012083ED91E11102
S11317B0E0CFD62CD501ED915D01EC3C10F40C94F6
S11317C06F1D209100013091010137FD09C0EFE93F
S11317D0FFE03197F1F700C0000021503109B8F75C
S11317E0A4E0B1E06D2CED91EE2301F1EC3CD8F7CF
S11317F027E0E29FF0011124BF01645B7E4FFB01EF
S113180042815381FA01308144244394512CFB01D9
S1131810068002C0440C551C0A94E2F7242D20953E
S11318202323FA012083ED91E111E0CFD62C5D98BA
S113183024E030E05A9859985B9A5B9859985B9ADF
S11318405B9859985B9A5B9859985B9A5B985998FE
S11318505B9A5B9859985B9A5B9859985B9A5B98EA
S113186059985B9A5B985A9A2150310919F7019655
S11318708730910509F0FACE90920101809200011F
S1131880DA94D110EDCED801E72D1D92EA95E9F74F
S113189020E088E4A981BA818052F5E08F9FC001DD
S11318A01124FC01E859FF4F3491E22FF0E0EF5C82
S11318B0FD4F3083FC01E759FF4F3491E1E0E20F23
S11318C0F0E0EF5CFD4F3083FC01E659FF4F3491AB
S11318D0E2E0E20FF0E0EF5CFD4F3083FC01E559FC
S11318E0FF4F3491E3E0E20FF0E0EF5CFD4F308313
S11318F0FC01E459FF4F8491E4E0E20FF0E0EF5C77
S1131900FD4F8083E5E0E20FF0E0EF5CFD4F1082D5
S11319102A5F8D91BA83A9838111BECFC12CD12CAA
S11319202C2DA1E3B2E0CD0181539240E09102015C
S1131930F0910301E80FF91F8D9190E0022E02C08F
S1131940959587950A94E2F78083EAE4F2E0EA1732
S1131950FB0749F7A0910201B09103015AE0A52EBB
S11319601A8309831A2D44E0A42E41E0B42E20E00A
S113197030E081E090E0022E01C0880F0A94EAF77B
S1131980982F58964C915897842311F00C949C1DD1
S11319905D9887E15A98FD01E80FF11D40814923C4
S11319A011F00C94991D59985B9A5B984FEF480F6E
S11319B0FD01E40FF11D4081492311F00C94961DA3
S11319C059985B9A5B984EEF480FFD01E40FF11DA7
S11319D04081492311F00C94931D59985B9A5B98AC
S11319E04DEF480FFD01E40FF11D4081492311F033
S11319F00C94901D59985B9A5B984CEF480FFD012D
S1131A00E40FF11D4081492311F00C948D1D599868
S1131A105B9A5B984BEF480FFD01E40FF11D408189
S1131A20492311F00C948A1D59985B9A5B984AEFEC
S1131A30480FFD01E40FF11D4081492311F00C947E
S1131A40871D59985B9A5B9849EF480FFD01E40F95
S1131A50F11D4081492311F00C94841D59985B9A1F
S1131A605B9888505A9A8F3F09F094CF84E091E0B4
S1131A702D01DC01ED91CD01EE23F1F0EC3CC8F732
S1131A8007E0E09FF0011124E45BFE4F6281738163
S1131A90DB015C91A1E0B0E0068002C0AA0FBB1F8D
S1131AA00A94E2F74A2F40954523FB014083DC0169
S1131AB0ED91CD01E111E2CFD201F50191915F01E8
S1131AC09C3C10F40C949F1D8091000190910101A5
S1131AD097FD08C0EFE9FFE03197F1F700C000007F
S1131AE00197C0F784E091E02D01DC01ED91CD0177
S1131AF0EE23F1F0EC3CC8F707E0E09FF00111247D
S1131B00E45BFE4F62817381DB015C91A1E0B0E094
S1131B10068002C0AA0FBB1F0A94E2F74A2F409521
S1131B204523FB014083DC01ED91CD01E111E2CFBE
S1131B30D2015D9884E090E05A9859985B9A5B983A
S1131B4059985B9A5B9859985B9A5B9859985B9AF9
S1131B505B9859985B9A5B9859985B9A5B985998EB
S1131B605B9A5B9859985B9A5B985A9A019721F70C
S1131B702F5F3F4F2730310509F0FBCEF092010172
S1131B80E0920001115009F0EECE09811A81BFEFF5
S1131B90CB1ADB0AE8E0CE16D10409F0C1CEA0913D
S1131BA00201B091030132E3B32E84E091E0C12C31
S1131BB0D12C21E030E00C2C01C0220F0A94EAF76A
S1131BC0322F58964C915897242311F00C94D21D1F
S1131BD05D9827E15A98FD01E20FF11D40814323EE
S1131BE011F00C94CF1D59985B9A5B984FEF420FFC
S1131BF0FD01E40FF11D4081432311F00C94CC1D31
S1131C0059985B9A5B984EEF420FFD01E40FF11D6A
S1131C104081432311F00C94C91D59985B9A5B9839
S1131C204DEF420FFD01E40FF11D4081432311F0FC
S1131C300C94C61D59985B9A5B984CEF420FFD01BA
S1131C40E40FF11D4081432311F00C94C31D5998F6
S1131C505B9A5B984BEF420FFD01E40FF11D40814D
S1131C60432311F00C94C01D59985B9A5B984AEF7A
S1131C70420FFD01E40FF11D4081432311F00C9448
S1131C80BD1D59985B9A5B9849EF420FFD01E40F23
S1131C90F11D4081432311F00C94BA1D59985B9AAD
S1131CA05B9828505A9A2F3F09F094CF24E031E0F2
S1131CB02D01D901ED919D01EE23F1F0EC3CC8F723
S1131CC047E0E49FF0011124E45BFE4F62817381DD
S1131CD0DB015C91A1E0B0E0068002C0AA0FBB1F4B
S1131CE00A94E2F74A2F40954523FB014083D9012A
S1131CF0ED919D01E111E2CFD201FC013191CF01BF
S1131D003C3C10F40C94D51D20910001309101014C
S1131D1037FD09C0EFE9FFE03197F1F700C000009B
S1131D2021503109B8F724E031E02D01D901ED91BA
S1131D309D01EE23F1F0EC3CC8F747E0E49FF0018D
S1131D401124E45BFE4F62817381DB015C91A1E0AD
S1131D50B0E0068002C0AA0FBB1F0A94E2F74A2F24
S1131D6040954523FB014083D901ED919D01E1118B
S1131D70E2CFD2015D9824E030E05A9859985B9AFA
S1131D805B9859985B9A5B9859985B9A5B985998B9
S1131D905B9A5B9859985B9A5B9859985B9A5B98A5
S1131DA059985B9A5B9859985B9A5B985A9A215018
S1131DB0310919F7EFEFCE1ADE0AF7E0CF16D10496
S1131DC009F0F7CE9092010180920001BA94B1100B
S1131DD0ECCED801E72D1D92EA95E9F72EE2422ECA
S1131DE021E0522ED20120E083E48052F5E08F9F5F
S1131DF0C0011124FC01E859FF4F3491E22FF0E0B7
S1131E00EF5CFD4F3083FC01E759FF4F3491E1E073
S1131E10E20FF0E0EF5CFD4F3083FC01E659FF4F29
S1131E203491E2E0E20FF0E0EF5CFD4F3083FC011F
S1131E30E559FF4F3491E3E0E20FF0E0EF5CFD4F32
S1131E403083FC01E459FF4F8491E4E0E20FF0E0B9
S1131E50EF5CFD4F8083E5E0E20FF0E0EF5CFD4FC7
S1131E6010822A5F8D918111C0CF2C2DE1E3F2E025
S1131E70CF0181539240A0910201B0910301A80FB8
S1131E80B91F819190E0022E02C0959587950A941E
S1131E90E2F78C939AE4A92E92E0B92EAE16BF060F
S1131EA039F7A0900201B09003018AE0682EC501C1
S1131EB00E9441016A946110FACF21E0C21AD1084C
S1131EC0A1F64AE0B4E0CB2EB1E0DB2E60E070E096
S1131ED081E090E0062E01C0880F0A94EAF7982F5B
S1131EE020914902822311F00C94081E5D9887E129
S1131EF05A98E82FF0E0EF5CFD4F2081292311F080
S1131F000C94051E59985B9A5B98EFEFE80FF0E08C
S1131F10EF5CFD4F2081292311F00C94021E599887
S1131F205B9A5B98EEEFE80FF0E0EF5CFD4F2081E9
S1131F30292311F00C94FF1D59985B9A5B98EDEFDF
S1131F40E80FF0E0EF5CFD4F2081292311F00C94A1
S1131F50FC1D59985B9A5B98ECEFE80FF0E0EF5C9E
S1131F60FD4F2081292311F00C94F91D59985B9A97
S1131F705B98EBEFE80FF0E0EF5CFD4F2081292345
S1131F8011F00C94F61D59985B9A5B98EAEFE80FF0
S1131F90F0E0EF5CFD4F2081292311F00C94F31D38
S1131FA059985B9A5B98E9EFE80FF0E0EF5CFD4F1E
S1131FB02081292311F00C94F01D59985B9A5B98A9
S1131FC088505A9A8F3F09F093CFA4E0B1E0642E71
S1131FD0ED91EE2301F1EC3CD8F737E0E39FF001FB
S1131FE01124AF01445B5E4F5A01FA01228133810F
S1131FF0F901908141E050E0F501068002C0440FF0
S1132000551F0A94E2F7842F80958923F901808370
S1132010ED91E111E0CF462DD601ED916D01EC3C3F
S113202010F40C940B1E809100019091010197FD16
S113203008C0EFE9FFE03197F1F700C00000019715
S1132040C0F7A4E0B1E0642EED91EE2301F1EC3C85
S1132050D8F727E0E29FF0011124AF01445B5E4F03
S11320605A01FA0122813381F901908141E050E063
S1132070F501068002C0440F551F0A94E2F7842F2D
S113208080958923F9018083ED91E111E0CF462DFC
S11320905D9884E090E05A9859985B9A5B985998B7
S11320A05B9A5B9859985B9A5B9859985B9A5B9892
S11320B059985B9A5B9859985B9A5B9859985B9A84
S11320C05B9859985B9A5B985A9A019721F76F5FCE
S11320D07F4F6730710509F0FBCE90920101809229
S11320E00001415009F0EECED801E72D1D92EA958A
S11320F0E9F7AEE2B1E020E083E48052F5E08F9F9F
S1132100C0011124FC01E859FF4F3491E22FF0E0A3
S1132110EF5CFD4F3083FC01E759FF4F3491E1E060
S1132120E20FF0E0EF5CFD4F3083FC01E659FF4F16
S11321303491E2E0E20FF0E0EF5CFD4F3083FC010C
S1132140E559FF4F3491E3E0E20FF0E0EF5CFD4F1F
S11321503083FC01E459FF4F8491E4E0E20FF0E0A6
S1132160EF5CFD4F8083E5E0E20FF0E0EF5CFD4FB4
S113217010822A5F8D918111C0CFA2E3DA2E34E060
S1132180A32E31E0B32E80E090E021E030E0082E71
S113219001C0220F0A94EAF7322F40914902242306
S11321A011F00C94381E5D9827E15A98E22FF0E064
S11321B0EF5CFD4F4081432311F00C94351E599878
S11321C05B9A5B98EFEFE20FF0E0EF5CFD4F40812C
S11321D0432311F00C94321E59985B9A5B98EEEFEE
S11321E0E20FF0E0EF5CFD4F4081432311F00C94CB
S11321F02F1E59985B9A5B98EDEFE20FF0E0EF5CCD
S1132200FD4F4081432311F00C942C1E59985B9A86
S11322105B98ECEFE20FF0E0EF5CFD4F408143236D
S113222011F00C94291E59985B9A5B98EBEFE20F1E
S1132230F0E0EF5CFD4F4081432311F00C94261E27
S113224059985B9A5B98EAEFE20FF0E0EF5CFD4F80
S11322504081432311F00C94231E59985B9A5B9898
S1132260E9EFE20FF0E0EF5CFD4F4081432311F012
S11322700C94201E59985B9A5B9828505A9A2F3FC9
S113228009F093CFA4E0B1E06D2CED91EE2301F1C0
S1132290EC3CD8F727E0E29FF0011124BF01645B16
S11322A07E4FFB0142815381FA013081CC24C394D7
S11322B0D12CFB01068002C0CC0CDD1C0A94E2F791
S11322C02C2D20952323FA012083ED91E111E0CFF9
S11322D0D62CD501ED915D01EC3C10F40C943B1E21
S11322E0209100013091010137FD09C0EFE9FFE0C1
S11322F03197F1F700C0000021503109B8F7A4E08C
S1132300B1E06D2CED91EE2301F1EC3CD8F727E020
S1132310E29FF0011124BF01645B7E4FFB01428107
S11323205381FA013081CC24C394D12CFB01068063
S113233002C0CC0CDD1C0A94E2F72C2D209523233B
S1132340FA012083ED91E111E0CFD62C5D9824E0D1
S113235030E05A9859985B9A5B9859985B9A5B98C5
S113236059985B9A5B9859985B9A5B9859985B9AD1
S11323705B9859985B9A5B9859985B9A5B985998C3
S11323805B9A5B985A9A2150310919F70196873064
S1132390910509F0FACE9092010180920001DA943D
S11323A0D110EDCED801E72D1D92EA95E9F720E092
S11323B083E48052F5E08F9FC0011124FC01E859A9
S11323C0FF4F3491E22FF0E0EF5CFD4F3083FC01CE
S11323D0E759FF4F3491E1E0E20FF0E0EF5CFD4F8D
S11323E03083FC01E659FF4F3491E2E0E20FF0E064
S11323F0EF5CFD4F3083FC01E559FF4F3491E3E07E
S1132400E20FF0E0EF5CFD4F3083FC01E459FF4F35
S11324108491E4E0E20FF0E0EF5CFD4F8083E5E0BF
S1132420E20FF0E0EF5CFD4F10822A5FD2018D9144
S11324302D018111BECFC12CD12C2C2DA1E3B2E0F2
S1132440CD0181539240E0910201F0910301E80F24
S1132450F91F8D91022E01C0880F0A94EAF7808338
S1132460EAE4F2E0EA17FB0759F7A0910201B09100
S113247003012AE0A22E1A8309831A2D94E0A92EBF
S113248091E0B92E20E030E081E090E0022E01C01E
S1132490880F0A94EAF7982F58964C9158978423FA
S11324A011F00C94681E5D9887E15A98FD01E80FBD
S11324B0F11D4081492311F00C94651E59985B9AD3
S11324C05B984FEF480FFD01E40FF11D4081492354
S11324D011F00C94621E59985B9A5B984EEF480F6A
S11324E0FD01E40FF11D4081492311F00C945F1E9E
S11324F059985B9A5B984DEF480FFD01E40FF11D6D
S11325004081492311F00C945C1E59985B9A5B98A6
S11325104CEF480FFD01E40FF11D4081492311F0F8
S11325200C94591E59985B9A5B984BEF480FFD0128
S1132530E40FF11D4081492311F00C94561E599863
S11325405B9A5B984AEF480FFD01E40FF11D40814F
S1132550492311F00C94531E59985B9A5B9849EFE8
S1132560480FFD01E40FF11D4081492311F00C9443
S1132570501E59985B9A5B9888505A9A8F3F09F07D
S113258094CF84E091E02D01DC01ED91CD01EE23A7
S1132590F1F0EC3CC8F707E0E09FF0011124E45BA4
S11325A0FE4F62817381DB015C91A1E0B0E00680A3
S11325B002C0AA0FBB1F0A94E2F74A2F4095452395
S11325C0FB014083DC01ED91CD01E111E2CFD201A9
S11325D0F50191915F019C3C10F40C946B1E809169
S11325E000019091010197FD08C0EFE9FFE03197E8
S11325F0F1F700C000000197C0F784E091E02D01DD
S1132600DC01ED91CD01EE23F1F0EC3CC8F707E0DD
S1132610E09FF0011124E45BFE4F62817381DB01D2
S11326205C91A1E0B0E0068002C0AA0FBB1F0A942F
S1132630E2F74A2F40954523FB014083DC01ED91ED
S1132640CD01E111E2CFD2015D9884E090E05A9887
S113265059985B9A5B9859985B9A5B9859985B9ADE
S11326605B9859985B9A5B9859985B9A5B985998D0
S11326705B9A5B9859985B9A5B9859985B9A5B98BC
S11326805A9A019721F72F5F3F4F2730310509F000
S1132690FBCEF0920101E0920001115009F0EECE60
S11326A009811A81BFEFCB1ADB0AE8E0CE16D10408
S11326B009F0C3CEA0910201B091030182E3B82EC8
S11326C024E031E080E090E041E050E0082E01C0D9
S11326D0440F0A94EAF7542F58966C91589746235E
S11326E011F00C949E1E5D9847E15A98FD01E40F89
S11326F0F11D6081652311F00C949B1E59985B9A1F
S11327005B986FEF640FFD01E60FF11D6081652397
S113271011F00C94981E59985B9A5B986EEF640FB5
S1132720FD01E60FF11D6081652311F00C94951EE7
S113273059985B9A5B986DEF640FFD01E60FF11DEC
S11327406081652311F00C94921E59985B9A5B98F2
S11327506CEF640FFD01E60FF11D6081652311F03C
S11327600C948F1E59985B9A5B986BEF640FFD0174
S1132770E60FF11D6081652311F00C948C1E5998AD
S11327805B9A5B986AEF640FFD01E60FF11D6081AF
S1132790652311F00C94891E59985B9A5B9869EF34
S11327A0640FFD01E60FF11D6081652311F00C94A7
S11327B0861E59985B9A5B9848505A9A4F3F09F085
S11327C094CF44E051E02D01DA01ED91AD01EE2307
S11327D0F1F0EC3CC8F767E0E69FF0011124E45BFC
S11327E0FE4FC280D380D6017C91A1E0B0E0068088
S11327F002C0AA0FBB1F0A94E2F76A2F60956723F1
S1132800F6016083DA01ED91AD01E111E2CFD2016D
S1132810F90151919F015C3C10F40C94A11E40916C
S113282000015091010157FD09C0EFE9FFE0319724
S1132830F1F700C0000041505109B8F744E051E0FD
S11328402D01DA01ED91AD01EE23F1F0EC3CC8F776
S113285067E0E69FF0011124E45BFE4FC280D38061
S1132860D6017C91A1E0B0E0068002C0AA0FBB1F94
S11328700A94E2F76A2F60956723F6016083DA0110
S1132880ED91AD01E111E2CFD2015D9844E050E059
S11328905A9859985B9A5B9859985B9A5B9859989F
S11328A05B9A5B9859985B9A5B9859985B9A5B988A
S11328B059985B9A5B9859985B9A5B9859985B9A7C
S11328C05B985A9A4150510919F70196873091053E
S11328D009F0FACE9092010180920001BA94B110ED
S11328E0EFCEF801472C11924A94E9F7B2E1AB2EEE
S11328F0B1E0BB2ED50120E08AE4805235E0839F0D
S1132900C0011124FC01E859FF4F3491E22FF0E09B
S1132910EF5CFD4F3083FC01E759FF4F3491E1E058
S1132920E20FF0E0EF5CFD4F3083FC01E659FF4F0E
S11329303491E2E0E20FF0E0EF5CFD4F3083FC0104
S1132940E559FF4F3491E3E0E20FF0E0EF5CFD4F17
S11329503083FC01E459FF4F8491E4E0E20FF0E09E
S1132960EF5CFD4F8083E5E0E20FF0E0EF5CFD4FAC
S113297010822A5F8D918111C0CFC12C1A830983E3
S11329801C2DA1E3B2E080E090E02D91E0910201E2
S1132990F0910301E80FF91F208301961817A8F797
S11329A0812FE0910201F0910301E80FF11D1082E3
S11329B08F5F8931B1F7AAE06A2E54E0C52E51E049
S11329C0D52E80E090E021E030E0082E01C0220FF7
S11329D00A94EAF7322F40916202242311F00C94F6
S11329E0D41E5D9827E15A98E22FF0E0E65BFD4F94
S11329F04081432311F00C94D11E59985B9A5B9843
S1132A00EFEFE20FF0E0E65BFD4F4081432311F06E
S1132A100C94CE1E59985B9A5B98EEEFE20FF0E0AF
S1132A20E65BFD4F4081432311F00C94CB1E599873
S1132A305B9A5B98EDEFE20FF0E0E65BFD4F4081BF
S1132A40432311F00C94C81E59985B9A5B98ECEFE1
S1132A50E20FF0E0E65BFD4F4081432311F00C945C
S1132A60C51E59985B9A5B98EBEFE20FF0E0E65BCA
S1132A70FD4F4081432311F00C94C21E59985B9A78
S1132A805B98EAEFE20FF0E0E65BFD4F4081432301
S1132A9011F00C94BF1E59985B9A5B98E9EFE20F12
S1132AA0F0E0E65BFD4F4081432311F00C94BC1E23
S1132AB059985B9A5B9828505A9A2F3F09F093CF04
S1132AC0A4E0B1E0ED91EE2301F1EC3CD8F747E04E
S1132AD0E49FF0011124BF01645B7E4FFB0142813E
S1132AE05381FA01308144244394512CFB01068024
S1132AF002C0440C551C0A94E2F7242D209523238C
S1132B00FA012083ED91E111E0CFD601ED916D0141
S1132B10EC3C10F40C94D71E20910001309101017B
S1132B2037FD09C0EFE9FFE03197F1F700C000007D
S1132B3021503109B8F7A4E0B1E0ED91EE2301F1A1
S1132B40EC3CD8F707E0E09FF0011124BF01645B7F
S1132B507E4FFB0142815381FA0130814424439426
S1132B60512CFB01068002C0440C551C0A94E2F768
S1132B70242D20952323FA012083ED91E111E0CF48
S1132B805D9824E030E05A9859985B9A5B9859987C
S1132B905B9A5B9859985B9A5B9859985B9A5B9897
S1132BA059985B9A5B9859985B9A5B9859985B9A89
S1132BB05B9859985B9A5B985A9A2150310919F796
S1132BC001968730910509F0FECEF0920101E09262
S1132BD000016A946110F1CE1F5F193109F0D1CE62
S1132BE0C12E09811A81D8011D92CA94E9F7A2E184
S1132BF0B1E020E08AE48052E5E08E9FC001112418
S1132C00FC01E859FF4F3491E22FF0E0EF5CFD4FF7
S1132C103083FC01E759FF4F3491E1E0E20FF0E02B
S1132C20EF5CFD4F3083FC01E659FF4F3491E2E045
S1132C30E20FF0E0EF5CFD4F3083FC01E559FF4FFC
S1132C403491E3E0E20FF0E0EF5CFD4F3083FC01F0
S1132C50E459FF4F8491E4E0E20FF0E0EF5CFD4FB4
S1132C608083E5E0E20FF0E0EF5CFD4F10822A5F25
S1132C708D918111C0CF42E3D42E81E392E00E9472
S1132C804101DA94D110F9CFD801E72D1D92EA95CC
S1132C90E9F720E08AE48052F5E08F9FC001112417
S1132CA0FC01E859FF4F3491E22FF0E0EF5CFD4F57
S1132CB03083FC01E759FF4F3491E1E0E20FF0E08B
S1132CC0EF5CFD4F3083FC01E659FF4F3491E2E0A5
S1132CD0E20FF0E0EF5CFD4F3083FC01E559FF4F5C
S1132CE03491E3E0E20FF0E0EF5CFD4F3083FC0150
S1132CF0E459FF4F8491E4E0E20FF0E0EF5CFD4F14
S1132D008083E5E0E20FF0E0EF5CFD4F10822A5F84
S1132D10D5018D915D018111BECF38E1D32E1C8385
S1132D200B8320E0822F90E0FC01EF5CFD4F3081AB
S1132D304091020150910301FA01E80FF91F308319
S1132D402F5FD21678F7DA948D2DE0910201F0917D
S1132D500301E80FF11D10828F5F8931B1F71AE08A
S1132D6024E0422E21E0522E80E090E021E030E089
S1132D70082E01C0220F0A94EAF7322F4091620212
S1132D80242311F00C94041F5D9827E15A98E22F34
S1132D90F0E0E65BFD4F4081432311F00C94011FEA
S1132DA059985B9A5B98EFEFE20FF0E0E65BFD4F1A
S1132DB04081432311F00C94FE1E59985B9A5B9852
S1132DC0EEEFE20FF0E0E65BFD4F4081432311F0AC
S1132DD00C94FB1E59985B9A5B98EDEFE20FF0E0C0
S1132DE0E65BFD4F4081432311F00C94F81E599883
S1132DF05B9A5B98ECEFE20FF0E0E65BFD4F4081FD
S1132E00432311F00C94F51E59985B9A5B98EBEFF1
S1132E10E20FF0E0E65BFD4F4081432311F00C9498
S1132E20F21E59985B9A5B98EAEFE20FF0E0E65BDA
S1132E30FD4F4081432311F00C94EF1E59985B9A87
S1132E405B98E9EFE20FF0E0E65BFD4F408143233E
S1132E5011F00C94EC1E59985B9A5B9828505A9A7E
S1132E602F3F09F093CFA4E0B1E0ED91EE23F1F010
S1132E70EC3CD8F707E0E09FF00111249F01245BAC
S1132E803E4FF90162817381FB01B08041E050E063
S1132E90F901068002C0440F551F0A94E2F74095D9
S1132EA04B21FB014083ED91E111E2CFD201ED9181
S1132EB02D01EC3C10F40C94071F2091000130917B
S1132EC0010137FD09C0EFE9FFE03197F1F700C0D8
S1132ED0000021503109B8F7A4E0B1E0ED91EE23F0
S1132EE0F1F0EC3CD8F707E0E09FF00111249F01DA
S1132EF0245B3E4FF90162817381FB01B08041E0A4
S1132F0050E0F901068002C0440F551F0A94E2F70D
S1132F1040954B21FB014083ED91E111E2CF5D9897
S1132F2024E030E05A9859985B9A5B9859985B9AD8
S1132F305B9859985B9A5B9859985B9A5B985998F7
S1132F405B9A5B9859985B9A5B9859985B9A5B98E3
S1132F5059985B9A5B985A9A2150310919F701964E
S1132F608730910509F002CFF0920101E09200014F
S1132F70115009F0F5CED110D4CE0B811C819AE00A
S1132F80D92E84E0A82E81E0B82E80E090E021E0E4
S1132F9030E0082E01C0220F0A94EAF7322F409144
S1132FA06202242309F058C75D9827E15A98E22F5A
S1132FB0F0E0E65BFD4F4081432309F04BC759988D
S1132FC05B9A5B98EFEFE20FF0E0E65BFD4F408128
S1132FD0432309F03DC759985B9A5B98EEEFE20FE3
S1132FE0F0E0E65BFD4F4081432309F02FC7599879
S1132FF05B9A5B98EDEFE20FF0E0E65BFD4F4081FA
S1133000432309F021C759985B9A5B98ECEFE20FD0
S1133010F0E0E65BFD4F4081432309F013C7599864
S11330205B9A5B98EBEFE20FF0E0E65BFD4F4081CB
S1133030432309F005C759985B9A5B98EAEFE20FBE
S1133040F0E0E65BFD4F4081432309F0F7C6599851
S11330505B9A5B98E9EFE20FF0E0E65BFD4F40819D
S1133060432309F0E9C659985B9A5B9828505A9A09
S11330702F3F09F09BCFA4E0B1E0ED91EE2301F1E5
S1133080EC3CD8F727E0E29FF0011124AF01445B48
S11330905E4F2A01FA0142815381FA01708121E0D5
S11330A030E0F201068002C0220F331F0A94E2F7D7
S11330B0622F60956723FA016083ED91E111E0CFFF
S11330C0D501ED915D01EC3C08F4C8C620910001E6
S11330D03091010137FD09C0EFE9FFE03197F1F7C5
S11330E000C0000021503109B8F7A4E0B1E0ED912F
S11330F0EE2301F1EC3CD8F727E0E29FF001112424
S1133100AF01445B5E4F2A01FA0162817381FB01C6
S1133110508121E030E0F201068002C0220F331F0B
S11331200A94E2F7422F40954523FB014083ED9139
S1133130E111E0CF5D9824E030E05A9859985B9A09
S11331405B9859985B9A5B9859985B9A5B985998E5
S11331505B9A5B9859985B9A5B9859985B9A5B98D1
S113316059985B9A5B9859985B9A5B985A9A215044
S1133170310919F701968730910509F008CF90922B
S1133180010180920001DA94D110FBCED801E72D21
S11331901D92EA95E9F7BCE0AB2EB1E0BB2ED50158
S11331A020E083E58052F5E08F9FC0011124FC01EB
S11331B0E859FF4F3491E22FF0E0EF5CFD4F30838C
S11331C0FC01E759FF4F3491E1E0E20FF0E0EF5CDE
S11331D0FD4F3083FC01E659FF4F3491E2E0E20FEA
S11331E0F0E0EF5CFD4F3083FC01E559FF4F349173
S11331F0E3E0E20FF0E0EF5CFD4F3083FC01E459C3
S1133200FF4F8491E4E0E20FF0E0EF5CFD4F808338
S1133210E5E0E20FF0E0EF5CFD4F10822A5F8D9154
S11332208111C0CFF4E64F2E512C509201014092EF
S11332300001A4E6DA2E24E031E03A83298380E019
S113324090E021E030E0082E01C0220F0A94EAF752
S1133250322F40914902242309F024C65D9827E1C6
S11332605A98E22FF0E0EF5CFD4F4081432309F0D0
S113327017C659985B9A5B98EFEFE20FF0E0EF5CAA
S1133280FD4F4081432309F009C659985B9A5B9826
S1133290EEEFE20FF0E0EF5CFD4F4081432309F0D5
S11332A0FBC559985B9A5B98EDEFE20FF0E0EF5C99
S11332B0FD4F4081432309F0EDC559985B9A5B9813
S11332C0ECEFE20FF0E0EF5CFD4F4081432309F0A7
S11332D0DFC559985B9A5B98EBEFE20FF0E0EF5C87
S11332E0FD4F4081432309F0D1C559985B9A5B98FF
S11332F0EAEFE20FF0E0EF5CFD4F4081432309F079
S1133300C3C559985B9A5B98E9EFE20FF0E0EF5C74
S1133310FD4F4081432309F0B5C559985B9A5B98EA
S113332028505A9A2F3F09F09BCFA4E0B1E0ED91C9
S1133330EE2301F1EC3CD8F727E0E29FF0011124E1
S1133340BF01645B7E4FFB0142815381FA013081EE
S113335044244394512CFB01068002C0440C551CA8
S11333600A94E2F7242D20952323FA012083ED917A
S1133370E111E0CFA981BA81ED91BA83A983EC3C34
S113338008F492C5209100013091010137FD09C074
S1133390EFE9FFE03197F1F700C000002150310957
S11333A0B8F7A4E0B1E0ED91EE2301F1EC3CD8F7DD
S11333B027E0E29FF0011124BF01645B7E4FFB0113
S11333C042815381FA01308144244394512CFB01FE
S11333D0068002C0440C551C0A94E2F7242D209563
S11333E02323FA012083ED91E111E0CF5D9824E0DD
S11333F030E05A9859985B9A5B9859985B9A5B9815
S113340059985B9A5B9859985B9A5B9859985B9A20
S11334105B9859985B9A5B9859985B9A5B98599812
S11334205B9A5B985A9A2150310919F701968730B3
S1133430910509F006CF9092010180920001DA947F
S1133440D110F9CED801E72D1D92EA95E9F7ACE049
S1133450B1E020E083E58052F5E08F9FC0011124A4
S1133460FC01E859FF4F3491E22FF0E0EF5CFD4F8F
S11334703083FC01E759FF4F3491E1E0E20FF0E0C3
S1133480EF5CFD4F3083FC01E659FF4F3491E2E0DD
S1133490E20FF0E0EF5CFD4F3083FC01E559FF4F94
S11334A03491E3E0E20FF0E0EF5CFD4F3083FC0188
S11334B0E459FF4F8491E4E0E20FF0E0EF5CFD4F4C
S11334C08083E5E0E20FF0E0EF5CFD4F10822A5FBD
S11334D08D918111C0CFF2E3DF2E24E031E03A83F5
S11334E0298380E090E021E030E0082E01C0220F23
S11334F00A94EAF7322F40914902242309F0F8C4D0
S11335005D9827E15A98E22FF0E0EF5CFD4F40818F
S1133510432309F0EBC459985B9A5B98EFEFE20FF1
S1133520F0E0EF5CFD4F4081432309F0DDC459987E
S11335305B9A5B98EEEFE20FF0E0EF5CFD4F4081A9
S1133540432309F0CFC459985B9A5B98EDEFE20FDF
S1133550F0E0EF5CFD4F4081432309F0C1C459986A
S11335605B9A5B98ECEFE20FF0E0EF5CFD4F40817B
S1133570432309F0B3C459985B9A5B98EBEFE20FCD
S1133580F0E0EF5CFD4F4081432309F0A5C4599856
S11335905B9A5B98EAEFE20FF0E0EF5CFD4F40814D
S11335A0432309F097C459985B9A5B98E9EFE20FBB
S11335B0F0E0EF5CFD4F4081432309F089C4599842
S11335C05B9A5B9828505A9A2F3F09F09BCFA4E04E
S11335D0B1E0ED91EE2301F1EC3CD8F727E0E29F56
S11335E0F0011124BF01645B7E4FFB0142815381D2
S11335F0FA01308144244394512CFB01068002C01B
S1133600440C551C0A94E2F7242D20952323FA0137
S11336102083ED91E111E0CFA981BA81ED91BA83C4
S1133620A983EC3C08F466C42091000130910101A7
S113363037FD09C0EFE9FFE03197F1F700C0000062
S113364021503109B8F7A4E0B1E0ED91EE2301F186
S1133650EC3CD8F727E0E29FF0011124BF01645B42
S11336607E4FFB0142815381FA013081442443940B
S1133670512CFB01068002C0440C551C0A94E2F74D
S1133680242D20952323FA012083ED91E111E0CF2D
S11336905D9824E030E05A9859985B9A5B98599861
S11336A05B9A5B9859985B9A5B9859985B9A5B987C
S11336B059985B9A5B9859985B9A5B9859985B9A6E
S11336C05B9859985B9A5B985A9A2150310919F77B
S11336D001968730910509F006CF909201018092FE
S11336E00001DA94D110F9CED801E72D1D92EA95A4
S11336F0E9F720E083E58052F5E08F9FC0011124B3
S1133700FC01E859FF4F3491E22FF0E0EF5CFD4FEC
S11337103083FC01E759FF4F3491E1E0E20FF0E020
S1133720EF5CFD4F3083FC01E659FF4F3491E2E03A
S1133730E20FF0E0EF5CFD4F3083FC01E559FF4FF1
S11337403491E3E0E20FF0E0EF5CFD4F3083FC01E5
S1133750E459FF4F8491E4E0E20FF0E0EF5CFD4FA9
S11337608083E5E0E20FF0E0EF5CFD4F10822A5F1A
S1133770D5018D915D018111BECFD12C1C830B83AA
S11337801D2D80E090E0E0910201F0910301E80F2B
S1133790F91F108201961817B0F7212F822F90E09D
S11337A0FC01EF5CFD4F3081409102015091030117
S11337B0FA01E80FF91F30832F5F293179F79AE076
S11337C0C92E84E0482E81E0582E80E090E021E06C
S11337D030E0082E01C0220F0A94EAF7322F4091FC
S11337E06202242309F0AAC35D9827E15A98E22FC4
S11337F0F0E0E65BFD4F4081432309F09DC35998F7
S11338005B9A5B98EFEFE20FF0E0E65BFD4F4081DF
S1133810432309F08FC359985B9A5B98EEEFE20F4C
S1133820F0E0E65BFD4F4081432309F081C35998E2
S11338305B9A5B98EDEFE20FF0E0E65BFD4F4081B1
S1133840432309F073C359985B9A5B98ECEFE20F3A
S1133850F0E0E65BFD4F4081432309F065C35998CE
S11338605B9A5B98EBEFE20FF0E0E65BFD4F408183
S1133870432309F057C359985B9A5B98EAEFE20F28
S1133880F0E0E65BFD4F4081432309F049C35998BA
S11338905B9A5B98E9EFE20FF0E0E65BFD4F408155
S11338A0432309F03BC359985B9A5B9828505A9A72
S11338B02F3F09F09BCFA4E0B1E0ED91EE23F1F0AE
S11338C0EC3CD8F707E0E09FF00111249F01245B52
S11338D03E4FF90162817381FB01B08041E050E009
S11338E0F901068002C0440F551F0A94E2F740957F
S11338F04B21FB014083ED91E111E2CFD201ED9127
S11339002D01EC3C08F41CC320910001309101010D
S113391037FD09C0EFE9FFE03197F1F700C000007F
S113392021503109B8F7A4E0B1E0ED91EE23F1F0B4
S1133930EC3CD8F707E0E09FF00111249F01245BE1
S11339403E4FF90162817381FB01B08041E050E098
S1133950F901068002C0440F551F0A94E2F740950E
S11339604B21FB014083ED91E111E2CF5D9824E00E
S113397030E05A9859985B9A5B9859985B9A5B988F
S113398059985B9A5B9859985B9A5B9859985B9A9B
S11339905B9859985B9A5B9859985B9A5B9859988D
S11339A05B9A5B985A9A2150310919F7019687302E
S11339B0910509F00CCFF0920101E0920001CA9444
S11339C0C110FFCE1F5F193109F0DBCE0B811C81C2
S11339D082E391E00E947A020C94DD06599A0C94D9
S11339E0B508599A0C94A808599A0C949B08599AAA
S11339F00C948E08599A0C948108599A0C94740862
S1133A00599A0C946708599A0C945A085D9A0C9424
S1133A104E08B7E0EB9FF0011124E45BFE4FA28156
S1133A20B3816C9181E090E0068002C0880F991FF9
S1133A300A94E2F7862B8C930C94E808599A0C9418
S1133A403E0A599A0C94310A599A0C94240A599AA8
S1133A500C94170A599A0C940A0A599A0C94FD0961
S1133A60599A0C94F009599A0C94E3095D9A0C94B0
S1133A70D80967E0969FF0011124CF01845B9E4F23
S1133A802C01FC0182819381FC01B08061E070E033
S1133A90F201068002C0660F771F0A94E2F76B29D1
S1133AA0FC0160830C94750A599A0C94AC0B599AD6
S1133AB00C949F0B599A0C94920B599A0C94850B65
S1133AC0599A0C94780B599A0C946B0B599A0C9440
S1133AD05E0B599A0C94510B5D9A0C94450BB7E00C
S1133AE0EB9FF0011124E45BFE4FA281B3814C9162
S1133AF021E030E0068002C0220F331F0A94E2F76F
S1133B00242B2C930C94E10B599A0C942F0D599A55
S1133B100C94220D599A0C94150D599A0C94080D75
S1133B20599A0C94FB0C599A0C94EE0C599A0C94D7
S1133B30E10C599A0C94D40C5D9A0C94C90C07E0CE
S1133B40909FF0011124AF01445B5E4F2A01FA01FA
S1133B5042815381FA01608181E090E0F2010680A4
S1133B6002C0880F991F0A94E2F7862BFA0180831A
S1133B700C94640D599A0C944F0E599A0C94420E5D
S1133B80599A0C94350E599A0C94280E599A0C94FF
S1133B901B0E599A0C940E0E599A0C94010E599AB4
S1133BA00C94F40D5D9A0C94E90D27E0329FF0011A
S1133BB01124AF01445B5E4F2A01FA014281538113
S1133BC0FA01608121E030E0F201068002C0220F98
S1133BD0331F0A94E2F7262BFA0120830C94840EF7
S1133BE0599A0C94DE0F599A0C94D10F599A0C944B
S1133BF0C40F599A0C94B70F599A0C94AA0F599A56
S1133C000C949D0F599A0C94900F599A0C94830F0D
S1133C105D9A0C94770FB7E0EB9FF0011124E45BFD
S1133C20FE4FA281B3812C9181E090E0068002C016
S1133C30880F991F0A94E2F7822B8C930C9413102B
S1133C40599A0C943B11599A0C942E11599A0C942C
S1133C502111599A0C941411599A0C940711599AD8
S1133C600C94FA10599A0C94ED10599A0C94E01093
S1133C705D9A0C94D410B7E0EB9FF0011124E45B3F
S1133C80FE4FA281B3814C9121E030E0068002C056
S1133C90220F331F0A94E2F7242B2C930C947011F7
S1133CA0599A0C94BA12599A0C94AD12599A0C94CC
S1133CB0A012599A0C949312599A0C948612599AF8
S1133CC00C947912599A0C946C12599A0C945F12B0
S1133CD05D9A0C94541207E0909FF0011124AF01F7
S1133CE0445B5E4F2A01FA0142815381FA016081EB
S1133CF081E090E0F201068002C0880F991F0A94C7
S1133D00E2F7862BFA0180830C94EF12599A0C94F3
S1133D10DA13599A0C94CD13599A0C94C013599AE6
S1133D200C94B313599A0C94A613599A0C9499139E
S1133D30599A0C948C13599A0C947F135D9A0C9491
S1133D40741347E0549FF0011124BF01645B7E4F5C
S1133D502B01FB0162817381FB01D08041E050E0C3
S1133D60F201068002C0440F551F0A94E2F74D2960
S1133D70FB0140830C940F14599A0C945915599AC9
S1133D800C944C15599A0C943F15599A0C9432156D
S1133D90599A0C942515599A0C941815599A0C94FF
S1133DA00B15599A0C94FE145D9A0C94F214B7E016
S1133DB0EB9FF0011124E45BFE4FA281B3814C918F
S1133DC021E030E0068002C0220F331F0A94E2F79C
S1133DD0242B2C930C948C15599A0C942C17599AC7
S1133DE00C941F17599A0C941217599A0C9405178E
S1133DF0599A0C94F816599A0C94EB16599A0C94F7
S1133E00DE16599A0C94D1165D9A0C94C516B7E037
S1133E10EB9FF0011124E45BFE4FA281B3816C910E
S1133E2041E050E0068002C0440F551F0A94E2F7B7
S1133E30462B4C930C945D17599A16C9599A08C984
S1133E40599AFAC8599AECC8599ADEC8599AD0C8EE
S1133E50599AC2C8599AB4C85D9AA7C8B7E0EB9FEB
S1133E60F0011124E45BFE4FA281B3816C9121E047
S1133E7030E0068002C0220F331F0A94E2F7262B9B
S1133E802C9324C9599A4ACA599A3CCA599A2ECA97
S1133E90599A20CA599A12CA599A04CA599AF6C9FF
S1133EA0599AE8C95D9ADBC9B7E0EB9FF001112488
S1133EB0E45BFE4FA281B3816C9121E030E0068087
S1133EC002C0220F331F0A94E2F7262B2C935ACAFE
S1133ED0599A76CB599A68CB599A5ACB599A4CCB62
S1133EE0599A3ECB599A30CB599A22CB599A14CB32
S1133EF05D9A07CBB7E0EB9FF0011124E45BFE4F22
S1133F00A281B3816C9121E030E0068002C0220FCF
S1133F10331F0A94E2F7262B2C9386CB599AC4CCF0
S1133F20599AB6CC599AA8CC599A9ACC599A8CCC0D
S1133F30599A7ECC599A70CC599A62CC5D9A55CCD8
S1133F40B7E0EB9FF0011124E45BFE4FA281B38143
S1133F506C9141E050E0068002C0440F551F0A9462
S10F3F60E2F7462B4C93D0CCF894FFCF32
S1133F6C01004A020C0D0E0F101112534841524518
S1133F7C004A4F494E004841434B004D414B4500CC
S1133F8C4D414B452C204841434B206E20434F441C
S1133F9C45004D414B45524841434B5320627920D7
S1133FAC4D5543484952494A4F484E0000000000C1
S1133FBC000000270028002600062A002B002900F8
S1133FCC002A002B002900012A002B002900022AB8
S1133FDC002B002900032A002B00290004000000F8
S1133FEC0000000000000000000000240025002355
S1133FFC0006240025002300072A002B00290005B5
S113400C2A002B002900062A002B00290007240073
S113401C2500230000240025002300012400250092
S113402C2300022400250023000324002500230080
S113403C04240025002300050000000000000000FB
S113404C0000000000000000000000000027002811
S113405C002600002700280026000127002800263F
S113406C000227002800260003270028002600044D
S10B407C2700280026000500BE
S9030000FC
