S01600004D61747269782D446973706C61792E7372656396
S11300000C9422010C943F010C943F010C943F0189
S11300100C943F010C943F010C943F010C943F015C
S11300200C943F010C943F010C943F010C943F014C
S11300300C943F010C943F010C943F010C943F013C
S11300400C943F010C943F010C943F010C943F012C
S11300500C943F010C943F010C943F010C943F011C
S11300600C943F010C943F01000000000000005F6D
S113007000000007000700147F147F14242A7F2A3D
S113008012231308646236495620500008070300FF
S1130090001C2241000041221C002A1C7F1C2A084B
S11300A0083E0808008070300008080808080000AE
S11300B060600020100804023E5149453E00427F22
S11300C0400072494949462141494D331814127F71
S11300D01027454545393C4A494931412111090711
S11300E03649494936464949291E00001400000092
S11300F04034000000081422411414141414004164
S113010022140802015909063E415D594E7C121120
S1130110127C7F494949363E414141227F41414158
S11301203E7F494949417F090909013E41415173D3
S11301307F0808087F00417F41002040413F017F44
S1130140081422417F404040407F021C027F7F040C
S113015008107F3E4141413E7F090909063E415155
S1130160215E7F09192946264949493203017F0145
S1130170033F4040403F1F2040201F3F4038403F46
S1130180631408146303047804036159494D43005C
S11301907F4141410204081020004141417F040293
S11301A0010204404040404000030708002054542A
S11301B078407F2844443838444444283844442808
S11301C07F385454541800087E090218A4A49C785B
S11301D07F0804047800447D40002040403D007FB7
S11301E01028440000417F40007C047804787C0897
S11301F00404783844444438FC182424181824246B
S113020018FC7C08040408485454542404043F444F
S1130210243C4040207C1C2040201C3C4030403C7E
S113022044281028444C9090907C4464544C4400DE
S11302300836410000007700000041360800020142
S11302400204020011241FBECFEFD8E0DEBFCDBFF1
S113025012E0A0E0B1E0EEE5F6E302C005900D92F5
S1130260A032B107D9F723E0A0E2B2E001C01D92A9
S1130270A632B207E1F70E948D020C942D1B0C9458
S11302800000CF92DF92EF92FF921F93CF93DF9300
S1130290AC0184E0E82E81E0F82EC12CD12C61E081
S11302A070E0262F0C2C01C0220F0A94EAF79FE37A
S11302B05AC059985B9A5B988FEF890FFA01E80F3F
S11302C0F11D8081822309F0EDC059985B9A5B98F7
S11302D08EEF890FFA01E80FF11D8081822309F066
S11302E0DFC059985B9A5B988DEF890FFA01E80F8C
S11302F0F11D8081822309F0D1C059985B9A5B98E3
S11303008CEF890FFA01E80FF11D8081822309F037
S1130310C3C059985B9A5B988BEF890FFA01E80F79
S1130320F11D8081822309F0B5C059985B9A5B98CE
S11303308AEF890FFA01E80FF11D8081822309F009
S1130340A7C059985B9A5B9889EF890FFA01E80F67
S1130350F11D8081822389F459985B9A5B989850A7
S11303605A9A9F3F89F05A98FA01E90FF11D80814A
S1130370822309F49ECF599A9DCF599A5B9A5B9830
S113038098505A9A9F3F79F7C4E0D1E0E991EE235F
S1130390C9F0EC3CD8F727E0E29FF0011124EC5AB5
S11303A0FE4FA281B3813C91CB01068002C0880F2D
S11303B0991F0A94E2F7282F209523232C93E9917F
S11303C0E111E7CFD701ED917D01EC3C08F46CC05D
S11303D0809100019091010197FD08C0EFE9FFE0D1
S11303E03197F1F700C000000197C0F7C4E0D1E0F5
S11303F0E991EE23C9F0EC3CD8F727E0E29FF00145
S11304001124EC5AFE4FA281B3813C91CB010680AA
S113041002C0880F991F0A94E2F7282F20952323FE
S11304202C93E991E111E7CF89E090E05A9859982B
S11304305B9A5B9859985B9A5B9859985B9A5B981E
S113044059985B9A5B9859985B9A5B9859985B9A10
S11304505B9859985B9A5B9859985B9A5B985A9AFF
S1130460019721F79FEFC91AD90AA7E0CA16D10448
S113047009F017CF81E090E090930101809300018F
S1130480DF91CF911F91FF90EF90DF90CF9008956F
S1130490599A58CF599A4ACF599A3CCF599A2ECF44
S11304A0599A20CF599A12CFB7E0EB9FF00111244B
S11304B0EC5AFE4FC281D3811881CB01068002C061
S11304C0880F991F0A94E2F7812B888381CFCF93F9
S11304D0DF93519A529A539AA4E0B1E041E050E07C
S11304E0ED91EE23B9F0EC3CD8F787E0E89FF001FA
S11304F01124EC5AFE4FC081D1812881CA010680A3
S113050002C0880F991F0A94E2F7822B8883ED9129
S1130510E111E9CFDF91CF910895CF93DF9300D01C
S113052000D000D0CDB7DEB70E94670220E6622E6D
S113053022E0722E30E4B32EEE24E394F12C8301F6
S1130540A4E0B1E0ED91EE23F1F0EC3CD8F727E024
S1130550E29FF0011124AF014C5A5E4FFA0122814F
S11305603381F901808122242394312CFA010680FD
S113057002C0220C331C0A94E2F7A10140958423A3
S1130580F9018083DFCF89E090E05A9859985B9A0B
S11305905B9859985B9A5B9859985B9A5B985998C1
S11305A05B9A5B9859985B9A5B9859985B9A5B98AD
S11305B059985B9A5B9859985B9A5B985A9A0197F9
S11305C021F7D301EB2D1D92EA95E9F7A0E3B1E001
S11305D020E08DE48052F5E08F9FC0011124FC01DE
S11305E0E859FF4F3491E22FF0E0E05AFD4F308399
S11305F0FC01E759FF4F3491E1E0E20FF0E0E05AEB
S1130600FD4F3083FC01E659FF4F3491E2E0E20FE5
S1130610F0E0E05AFD4F3083FC01E559FF4F34917F
S1130620E3E0E20FF0E0E05AFD4F3083FC01E459CF
S1130630FF4F349184E0820F90E0805A9D4FFC017B
S113064030832A5F8D918111C5CFBAEFDB2E80E60E
S113065092E00E944101DA94D110F9CFD301EB2D3D
S11306601D92EA95E9F7A6E2B1E020E08DE480521C
S1130670F5E08F9FC0011124FC01E859FF4F34912C
S1130680E22FF0E0E05AFD4F3083FC01E759FF4FC1
S11306903491E1E0E20FF0E0E05AFD4F3083FC01D9
S11306A0E659FF4F3491E2E0E20FF0E0E05AFD4FEB
S11306B03083FC01E559FF4F3491E3E0E20FF0E0B1
S11306C0E05AFD4F3083FC01E459FF4F349184E03C
S11306D0820F90E0805A9D4FFC0130832A5F8D91F8
S11306E08111C5CF4FE350E0842F90E0292F30E0F3
S11306F0F901E41BF50BE056FD4FE0816091020126
S113070070910301DB01A20FB31FEC939F5F891764
S113071068F7E0910201F0910301E80FF11D1082E6
S11307208F5F8034B1F7AAE0DA2E24E031E080E074
S113073090E071E0082E01C0770F0A94EAF76FE3A6
S11307405AC059985B9A5B98EFEFE60FF0E0E056D9
S1130750FD4FE081E72309F0BAC159985B9A5B9891
S1130760EEEFE60FF0E0E056FD4FE081E72309F0FD
S1130770ACC159985B9A5B98EDEFE60FF0E0E05658
S1130780FD4FE081E72309F09EC159985B9A5B987D
S1130790ECEFE60FF0E0E056FD4FE081E72309F0CF
S11307A090C159985B9A5B98EBEFE60FF0E0E05646
S11307B0FD4FE081E72309F082C159985B9A5B9869
S11307C0EAEFE60FF0E0E056FD4FE081E72309F0A1
S11307D074C159985B9A5B98E9EFE60FF0E0E05634
S11307E0FD4FE081E72391F459985B9A5B98685038
S11307F05A9A6F3F91F05A98E62FF0E0E056FD4F79
S1130800E081E72309F49DCF599A9CCF599A5B9ACA
S11308105B9868505A9A6F3F71F7A4E0B1E0AD2C31
S1130820ED91EE2309F1EC3CD8F767E0E69FF00187
S11308301124BF016C5A7E4F1B01FB01C280D3807F
S1130840F601708188248394912CF101068002C002
S1130850880C991C0A94E2F7682D60956723F601C9
S11308606083ED91E111DFCFDA2CD901ED919D0187
S1130870EC3C08F42EC1609100017091010177FDF8
S113088009C0EFE9FFE03197F1F700C000006150C3
S11308907109B8F7A4E0B1E0AD2CED91EE2309F1B4
S11308A0EC3CD8F767E0E69FF0011124BF016C5AD5
S11308B07E4F1B01FB01C280D380F6017081882426
S11308C08394912CF101068002C0880C991C0A942F
S11308D0E2F7682D60956723F6016083ED91E111DD
S11308E0DFCFDA2C69E070E05A9859985B9A5B98EC
S11308F059985B9A5B9859985B9A5B9859985B9A5C
S11309005B9859985B9A5B9859985B9A5B9859984D
S11309105B9A5B9859985B9A5B985A9A61507109F3
S113092019F701968730910509F003CFF092010180
S1130930E0920001DA94D110F8CE4150510909F047
S1130940D3CED301EB2D1D92EA95E9F761E2C62ED1
S113095061E0D62ED60120E08DE48052F5E08F9F31
S1130960C0011124FC01E859FF4F3491422F50E09B
S1130970405A5D4FFA013083FC01E759FF4F34912F
S1130980E1E0E20FF0E0E05AFD4F3083FC01E6596C
S1130990FF4F3491E2E0E20FF0E0E05AFD4F308384
S11309A0FC01E559FF4F3491E3E0E20FF0E0E05A37
S11309B0FD4F3083FC01E459FF4F8491E4E0E20FE2
S11309C0F0E0E05AFD4F80832A5F8D918111C5CFFD
S11309D054E0952EEAE0AE2E24E031E080E090E091
S11309E051E0082E01C0550F0A94EAF74FE35AC0AC
S11309F059985B9A5B98EFEFE40FF0E0E05AFD4FF3
S1130A006081652309F03FC259985B9A5B98EEEFC9
S1130A10E40FF0E0E05AFD4F6081652309F031C234
S1130A2059985B9A5B98EDEFE40FF0E0E05AFD4FC4
S1130A306081652309F023C259985B9A5B98ECEFB7
S1130A40E40FF0E0E05AFD4F6081652309F015C220
S1130A5059985B9A5B98EBEFE40FF0E0E05AFD4F96
S1130A606081652309F007C259985B9A5B98EAEFA5
S1130A70E40FF0E0E05AFD4F6081652309F0F9C10D
S1130A8059985B9A5B98E9EFE40FF0E0E05AFD4F68
S1130A906081652391F559985B9A5B9848505A9AFE
S1130AA04F3F91F15A98E42FF0E0E05AFD4F6081F6
S1130AB0652309F49DCF599A9CCF599A8BCE599AA4
S1130AC07DCE599A6FCE599A61CE599A53CE599A7E
S1130AD045CEB7E0EB9FF0011124EC5AFE4FA28102
S1130AE0B381CC9061E070E0068002C0660F771F8E
S1130AF00A94E2F76C296C93BECE599A5B9A5B9880
S1130B0048505A9A4F3F71F6A4E0B1E0592CED9148
S1130B10EE2309F1EC3CD8F747E0E49FF0011124FF
S1130B20BF016C5A7E4F1B01FB0162817381FB0183
S1130B30508188248394912CF101068002C0880C92
S1130B40991C0A94E2F7482D40954523FB01408304
S1130B50ED91E111DFCF952CD901ED919D01EC3C94
S1130B6008F493C1409100015091010157FD09C05F
S1130B70EFE9FFE03197F1F700C00000415051095F
S1130B80B8F7A4E0B1E0592CED91EE2309F1EC3C67
S1130B90D8F747E0E49FF0011124BF016C5A7E4F5F
S1130BA01B01FB0162817381FB01508188248394C2
S1130BB0912CF101068002C0880C991C0A94E2F77A
S1130BC0482D40954523FB014083ED91E111DFCF92
S1130BD0952C49E050E05A9859985B9A5B9859983B
S1130BE05B9A5B9859985B9A5B9859985B9A5B9867
S1130BF059985B9A5B9859985B9A5B9859985B9A59
S1130C005B9859985B9A5B985A9A4150510919F725
S1130C1001968730910509F0E3CEF0920101E0924C
S1130C200001AA94A110D8CE64E071E0DB01ED913B
S1130C30BD01EE23E1F0EC3CC8F727E0E29FF001B0
S1130C401124EC5AFE4F82819381DC014C9121E006
S1130C5030E0068002C0220F331F0A94E2F7209589
S1130C6024232C93DB01ED91BD01E111E4CF89E054
S1130C7090E05A9859985B9A5B9859985B9A5B985C
S1130C8059985B9A5B9859985B9A5B9859985B9AC8
S1130C905B9859985B9A5B9859985B9A5B985998BA
S1130CA05B9A5B985A9A019721F7BFEFE9E6F8E15E
S1130CB0B150E040F040E1F700C000009A94911078
S1130CC089CED301EB2D1D92EA95E9F720E08DE45E
S1130CD08052F5E08F9FC0011124FC01E859FF4FB9
S1130CE03491E22FF0E0E05AFD4F3083FC01E759E4
S1130CF0FF4F3491E1E0E20FF0E0E05AFD4F308322
S1130D00FC01E659FF4F3491E2E0E20FF0E0E05AD3
S1130D10FD4F3083FC01E559FF4F3491E3E0E20FCE
S1130D20F0E0E05AFD4F3083FC01E459FF4F849119
S1130D30E4E0E20FF0E0E05AFD4F80832A5FD60141
S1130D408D916D018111C4CFC12CD12C8C2D20E04B
S1130D5030E0E0910201F0910301E20FF31F1082F1
S1130D602F5F3F4F8217A8F7282F30E0F901EC19C5
S1130D70FD09E05AFD4F9081409102015091030119
S1130D80FA01E20FF31F90838F5F803469F76AE002
S1130D9084E091E0812C912C31E0082C01C0330FC8
S1130DA00A94EAF72FE35AC059985B9A5B98EFEFDD
S1130DB0E20FF0E0E056FD4F4081432309F007C203
S1130DC059985B9A5B98EEEFE20FF0E0E056FD4F26
S1130DD04081432309F0F9C159985B9A5B98EDEF80
S1130DE0E20FF0E0E056FD4F4081432309F0EBC1F0
S1130DF059985B9A5B98ECEFE20FF0E0E056FD4FF8
S1130E004081432309F0DDC159985B9A5B98EBEF6D
S1130E10E20FF0E0E056FD4F4081432309F0CFC1DB
S1130E2059985B9A5B98EAEFE20FF0E0E056FD4FC9
S1130E304081432309F0C1C159985B9A5B98E9EF5B
S1130E40E20FF0E0E056FD4F4081432391F55998BD
S1130E505B9A5B9828505A9A2F3F91F15A98E22F47
S1130E60F0E0E056FD4F4081432309F49DCF599AA9
S1130E709CCF599A06CE599AF8CD599AEACD599AE7
S1130E80DCCD599ACECD599AC0CDB7E0EB9FF00195
S1130E901124EC5AFE4FA281B3816C9141E050E0E1
S1130EA0068002C0440F551F0A94E2F7462B4C9368
S1130EB059CE599A5B9A5B9828505A9A2F3F71F6EB
S1130EC0A4E0B1E0ED91EE2309F1EC3CD8F727E082
S1130ED0E29FF0011124AF014C5A5E4F2A01FA013E
S1130EE042815381FA01308122242394312CF2016E
S1130EF0068002C0220C331C0A94E2F7222D2095AE
S1130F002323FA012083ED91E111DFCFDC01ED9180
S1130F10CD01EC3C08F45DC1209100013091010148
S1130F2037FD09C0EFE9FFE03197F1F700C0000099
S1130F3021503109B8F7A4E0B1E0ED91EE2309F1B5
S1130F40EC3CD8F727E0E29FF0011124AF014C5AA2
S1130F505E4F2A01FA0142815381FA013081222431
S1130F602394312CF201068002C0220C331C0A9413
S1130F70E2F7222D20952323FA012083ED91E1113C
S1130F80DFCF29E030E05A9859985B9A5B985998DA
S1130F905B9A5B9859985B9A5B9859985B9A5B98B3
S1130FA059985B9A5B9859985B9A5B9859985B9AA5
S1130FB05B9859985B9A5B985A9A2150310919F7B2
S1130FC0FFEF8F1A9F0A27E08216910409F0E4CEFE
S1130FD0F0920101E0920001615009F0D9CE3FEF97
S1130FE0C31AD30A40E4C416D10409F0AFCED30126
S1130FF0EB2D1D92EA95E9F79CE1492E91E0592EDB
S1131000D20123E188E48052F5E08F9FC0011124CE
S1131010FC01E859FF4F3491E22FF0E0E05AFD4F14
S11310203083FC01E759FF4F3491E1E0E20FF0E037
S1131030E05AFD4F3083FC01E659FF4F3491E2E062
S1131040E20FF0E0E05AFD4F3083FC01E559FF4F19
S11310503491E3E0E20FF0E0E05AFD4F3083FC010D
S1131060E459FF4F8491E4E0E20FF0E0E05AFD4FD1
S113107080832A5F8D918111C6CF282DF0E66F2ED3
S1131080F2E07F2EF301CF0180569240A09102013D
S1131090B0910301A80FB91F8191022E01C0880FDE
S11310A00A94EAF78C9380EA282E82E0382E2E16D2
S11310B03F0649F72090020130900301BAE0AB2EBD
S11310C0C1010E944101AA94A110FACF21E0821A21
S11310D0910899F6AAE09A2E64E071E080E090E02D
S11310E031E0082E01C0330F0A94EAF72FE35AC007
S11310F059985B9A5B98EFEFE20FF0E0E05AFD4FEE
S11311004081432309F058C259985B9A5B98EEEFEB
S1131110E20FF0E0E05AFD4F4081432309F04AC258
S113112059985B9A5B98EDEFE20FF0E0E05AFD4FBF
S11311304081432309F03CC259985B9A5B98ECEFD9
S1131140E20FF0E0E05AFD4F4081432309F02EC244
S113115059985B9A5B98EBEFE20FF0E0E05AFD4F91
S11311604081432309F020C259985B9A5B98EAEFC7
S1131170E20FF0E0E05AFD4F4081432309F012C230
S113118059985B9A5B98E9EFE20FF0E0E05AFD4F63
S11311904081432391F559985B9A5B9828505A9A59
S11311A02F3F91F15A98E22FF0E0E05AFD4F408131
S11311B0432309F49DCF599A9CCF599A3ECE599A0C
S11311C030CE599A22CE599A14CE599A06CE599AAB
S11311D0F8CDB7E0EB9FF0011124EC5AFE4FA28149
S11311E0B3814C9121E030E0068002C0220F331F0E
S11311F00A94E2F7242B2C938FCE599A5B9A5B982E
S113120028505A9A2F3F71F6A4E0B1E0ED91EE23F5
S113121029F1EC3CD8F737E0E39FF0011124AF014A
S11312204C5A5E4F5C834B83FA0142815381FA012D
S1131230208122242394312CEB81FC81068002C07E
S1131240220C331C0A94E2F73C822B82E22DE095B7
S11312502E23FA012083ED91E111DBCFDB01ED9127
S1131260BD01EC3C98F4B7E0EB9FF0011124EC5A7B
S1131270FE4FA281B3814C9121E030E0068002C090
S1131280220F331F0A94E2F7242B2C9320910001A0
S11312903091010137FD09C0EFE9FFE03197F1F723
S11312A000C0000021503109B8F7A4E0B1E0ED918D
S11312B0EE2329F1EC3CD8F727E0E29FF00111245A
S11312C0AF014C5A5E4F5C834B83FA0142815381D8
S11312D0FA01208122242394312CEB81FC810680A5
S11312E002C0220C331C0A94E2F73C822B82E22DCA
S11312F0E0952E23FA012083ED91E111DBCF29E063
S113130030E05A9859985B9A5B9859985B9A5B9825
S113131059985B9A5B9859985B9A5B9859985B9A31
S11313205B9859985B9A5B9859985B9A5B98599823
S11313305B9A5B985A9A2150310919F701968730C4
S1131340910509F0CDCE22242394312C3092010151
S1131350209200019A949110BFCED801EB2D1D92DA
S1131360EA95E9F7ACE1B1E023E188E48052F5E0E5
S11313708F9FC0011124FC01E859FF4F3491E22FE3
S1131380F0E0E05AFD4F3083FC01E759FF4F349100
S1131390E1E0E20FF0E0E05AFD4F3083FC01E65952
S11313A0FF4F3491E2E0E20FF0E0E05AFD4F30836A
S11313B0FC01E559FF4F3491E3E0E20FF0E0E05A1D
S11313C0FD4F3083FC01E459FF4F8491E4E0E20FC8
S11313D0F0E0E05AFD4F80832A5F8D918111C6CFE2
S11313E092E3A92E80E692E00E944101AA94A11002
S11313F0F9CFD801EB2D1D92EA95E9F723E188E4B2
S11314008052F5E08F9FC0011124FC01E859FF4F81
S11314103491E22FF0E0E05AFD4F3083FC01E759AC
S1131420FF4F3491E1E0E20FF0E0E05AFD4F3083EA
S1131430FC01E659FF4F3491E2E0E20FF0E0E05A9C
S1131440FD4F3083FC01E559FF4F3491E3E0E20F97
S1131450F0E0E05AFD4F3083FC01E459FF4F8491E2
S1131460E4E0E20FF0E0E05AFD4F80832A5FD2010E
S11314708D912D018111C4CF60E070E0262FE0E64C
S1131480F2E0CF0180569240A0910201B091030195
S1131490A80FB91F819190E0022E02C095958795FF
S11314A00A94E2F78C9380EA282E82E0382E2E16D6
S11314B03F0639F78091020190910301BAE0AB2E07
S11314C0A4E02A2EA1E03A2E812C912C31E0082CA4
S11314D001C0330F0A94EAF72FE35AC059985B9A74
S11314E05B984FEF420FFC01E40FF11D4081432351
S11314F009F0BBC259985B9A5B984EEF420FFC010E
S1131500E40FF11D4081432309F0ADC259985B9A61
S11315105B984DEF420FFC01E40FF11D4081432322
S113152009F09FC259985B9A5B984CEF420FFC01FB
S1131530E40FF11D4081432309F091C259985B9A4D
S11315405B984BEF420FFC01E40FF11D40814323F4
S113155009F083C259985B9A5B984AEF420FFC01E9
S1131560E40FF11D4081432309F075C259985B9A39
S11315705B9849EF420FFC01E40FF11D40814323C6
S1131580E9F459985B9A5B9828505A9A2F3FE9F0EE
S11315905A98FC01E20FF11D4081432309F49ECFC8
S11315A0599A9DCF599AEDCD599ADFCD599AD1CDFB
S11315B0599AC3CD599AB5CD599AA7CD599A5B9AE0
S11315C05B9828505A9A2F3F19F7A4E0B1E09E8304
S11315D08D83ED91EE2301F1EC3CD8F727E0E29FF7
S11315E0F0011124AF014C5A5E4F2A01FA014281E5
S11315F05381FA01308181E090E0F201068002C05B
S1131600880F991F0A94E2F7282F20952323FA01C3
S11316102083ED91E111E0CF8D819E81D101ED9187
S11316201D01EC3C08F423C220910001309101011A
S113163037FD09C0EFE9FFE03197F1F700C0000082
S113164021503109B8F7A4E0B1E09E838D83ED9178
S1131650EE2301F1EC3CD8F727E0E29FF0011124DE
S1131660AF014C5A5E4F2A01FA0142815381FA01BB
S1131670308181E090E0F201068002C0880F991F5A
S11316800A94E2F7282F20952323FA012083ED9171
S1131690E111E0CF8D819E8129E030E05A9859987C
S11316A05B9A5B9859985B9A5B9859985B9A5B989C
S11316B059985B9A5B9859985B9A5B9859985B9A8E
S11316C05B9859985B9A5B9859985B9A5B985A9A7D
S11316D02150310919F7FFEF8F1A9F0A27E082166C
S11316E0910409F0F3CEF0920101E0920001AA9472
S11316F0A110E6CE6F5F7F4F6830710509F0BECE52
S11317002090020130900301F2E3AF2EC1010E9448
S11317104101AA94A110FACFD801EB2D1D92EA95AC
S1131720E9F7E7E12E2EE1E03E2ED10126E283E443
S11317308052F5E08F9FC0011124FC01E859FF4F4E
S11317403491E22FF0E0E05AFD4F3083FC01E75979
S1131750FF4F3491E1E0E20FF0E0E05AFD4F3083B7
S1131760FC01E659FF4F3491E2E0E20FF0E0E05A69
S1131770FD4F3083FC01E559FF4F3491E3E0E20F64
S1131780F0E0E05AFD4F3083FC01E459FF4F8491AF
S1131790E4E0E20FF0E0E05AFD4F80832A5F8D9190
S11317A08111C6CF282DE0E6F2E0CF0180569240A9
S11317B0A0910201B0910301A80FB91F819190E09B
S11317C0022E02C0959587950A94E2F78C9370EAED
S11317D0472E72E0572E4E165F0639F740900201ED
S11317E0509003016AE0A62EC2010E944101AA940E
S11317F0A110FACF21E0821A9108A1F65AE0A52E91
S113180080E692E00E944101AA94A110F9CFD80188
S1131810EB2D1D92EA95E9F7A7E1B1E026E283E416
S11318208052F5E08F9FC0011124FC01E859FF4F5D
S11318303491E22FF0E0E05AFD4F3083FC01E75988
S1131840FF4F3491E1E0E20FF0E0E05AFD4F3083C6
S1131850FC01E659FF4F3491E2E0E20FF0E0E05A78
S1131860FD4F3083FC01E559FF4F3491E3E0E20F73
S1131870F0E0E05AFD4F3083FC01E459FF4F8491BE
S1131880E4E0E20FF0E0E05AFD4F80832A5F8D919F
S11318908111C6CF42E3A42E80E692E00E9441016A
S11318A0AA94A110F9CFD801EB2D1D92EA95E9F77E
S11318B026E283E48052F5E08F9FC0011124FC01ED
S11318C0E859FF4F3491E22FF0E0E05AFD4F3083A6
S11318D0FC01E759FF4F3491E1E0E20FF0E0E05AF8
S11318E0FD4F3083FC01E659FF4F3491E2E0E20FF3
S11318F0F0E0E05AFD4F3083FC01E559FF4F34918D
S1131900E3E0E20FF0E0E05AFD4F3083FC01E459DC
S1131910FF4F8491E4E0E20FF0E0E05AFD4F808352
S11319202A5FD1018D911D018111C4CF812C912C8D
S1131930482DE0E6F2E0CF0180569240209102016A
S113194030910301D901A80FB91F9191042E01C050
S1131950990F0A94EAF79C9330EA232E32E0332E4F
S11319602E163F0641F780910201909103012AE06F
S1131970A22EB4E02B2EB1E03B2E60E070E031E00B
S1131980062E01C0330F0A94EAF72FE35AC0599880
S11319905B9A5B984FEF420FFC01E40FF11D40810D
S11319A0432309F09CC159985B9A5B984EEF420F10
S11319B0FC01E40FF11D4081432309F08EC15998C5
S11319C05B9A5B984DEF420FFC01E40FF11D4081DF
S11319D0432309F080C159985B9A5B984CEF420FFE
S11319E0FC01E40FF11D4081432309F072C15998B1
S11319F05B9A5B984BEF420FFC01E40FF11D4081B1
S1131A00432309F064C159985B9A5B984AEF420FEB
S1131A10FC01E40FF11D4081432309F056C159989C
S1131A205B9A5B9849EF420FFC01E40FF11D408182
S1131A30432389F559985B9A5B9828505A9A2F3F0B
S1131A4089F15A98FC01E20FF11D4081432309F406
S1131A509ECF599A9DCF599A8ACD599A7CCD599A3D
S1131A606ECD599A60CD599A52CD599A44CDB7E06A
S1131A70EB9FF0011124EC5AFE4FA281B3814C91EB
S1131A8021E030E0068002C0220F331F0A94E2F7FF
S1131A90242B2C93C9CD599A5B9A5B9828505A9A57
S1131AA02F3F79F6A4E0B1E09E838D83ED91EE2380
S1131AB001F1EC3CD8F727E0E29FF0011124AF01DB
S1131AC04C5A5E4F2A01FA0142815381FA01308156
S1131AD081E090E0F201068002C0880F991F0A9409
S1131AE0E2F7282F20952323FA012083ED91E111B9
S1131AF0E0CF8D819E81D101ED911D01EC3C08F474
S1131B00F0C0209100013091010137FD09C0EFE9D7
S1131B10FFE03197F1F700C0000021503109B8F718
S1131B20A4E0B1E09E838D83ED91EE2301F1EC3CC2
S1131B30D8F727E0E29FF0011124AF014C5A5E4F21
S1131B402A01FA0142815381FA01308181E090E057
S1131B50F201068002C0880F991F0A94E2F7282F29
S1131B6020952323FA012083ED91E111E0CF8D81AB
S1131B709E8129E030E05A9859985B9A5B9859986D
S1131B805B9A5B9859985B9A5B9859985B9A5B98B7
S1131B9059985B9A5B9859985B9A5B9859985B9AA9
S1131BA05B9859985B9A5B985A9A2150310919F7B6
S1131BB06F5F7F4F6730710509F0E1CEF09201014C
S1131BC0E0920001AA94A110D4CEFFEF8F1A9F0ACD
S1131BD028E08216910409F0ABCE80910201909125
S1131BE00301A2E3AA2EB4E08B2EB1E09B2E60E0A9
S1131BF070E031E0062E01C0330F0A94EAF72FE3B8
S1131C005AC059985B9A5B984FEF420FFC01E40F5E
S1131C10F11D4081432309F0EFC159985B9A5B9809
S1131C204EEF420FFC01E40FF11D4081432309F004
S1131C30E1C159985B9A5B984DEF420FFC01E40FA8
S1131C40F11D4081432309F0D3C159985B9A5B98F5
S1131C504CEF420FFC01E40FF11D4081432309F0D6
S1131C60C5C159985B9A5B984BEF420FFC01E40F96
S1131C70F11D4081432309F0B7C159985B9A5B98E1
S1131C804AEF420FFC01E40FF11D4081432309F0A8
S1131C90A9C159985B9A5B9849EF420FFC01E40F84
S1131CA0F11D4081432389F559985B9A5B9828502C
S1131CB05A9A2F3F89F15A98FC01E20FF11D408195
S1131CC0432309F49ECF599A9DCF599AA9CE599A84
S1131CD09BCE599A8DCE599A7FCE599A71CE599AE4
S1131CE063CEB7E0EB9FF0011124EC5AFE4FA281C2
S1131CF0B3814C9121E030E0068002C0220F331FF3
S1131D000A94E2F7242B2C93FCCE599A5B9A5B98A5
S1131D1028505A9A2F3F79F6A4E0B1E0ED91EE23D2
S1131D2009F1EC3CD8F737E0E39FF0011124AF014F
S1131D304C5A5E4F2A01FA0142815381FA013081E3
S1131D4022242394312CF201068002C0220C331C7D
S1131D500A94E2F7222D20952323FA012083ED91A2
S1131D60E111DFCFD401ED914D01EC3C08F446C103
S1131D70209100013091010137FD09C0EFE9FFE036
S1131D803197F1F700C0000021503109B8F7A4E001
S1131D90B1E0ED91EE2309F1EC3CD8F727E0E29FA6
S1131DA0F0011124AF014C5A5E4F2A01FA0142811D
S1131DB05381FA01308122242394312CF2010680CC
S1131DC002C0220C331C0A94E2F7222D209523230F
S1131DD0FA012083ED91E111DFCF29E030E05A9838
S1131DE059985B9A5B9859985B9A5B9859985B9A57
S1131DF05B9859985B9A5B9859985B9A5B98599849
S1131E005B9A5B9859985B9A5B9859985B9A5B9834
S1131E105A9A2150310919F76F5F7F4F6730710566
S1131E2009F0E7CE22242394312C30920101209230
S1131E300001AA94A110D7CED801EB2D1D92EA95EA
S1131E40E9F722E131E03C832B83D90120E08AE4E5
S1131E50805235E0839FC0011124FC01E859FF4FF3
S1131E603491E22FF0E0E05AFD4F3083FC01E75952
S1131E70FF4F3491E1E0E20FF0E0E05AFD4F308390
S1131E80FC01E659FF4F3491E2E0E20FF0E0E05A42
S1131E90FD4F3083FC01E559FF4F3491E3E0E20F3D
S1131EA0F0E0E05AFD4F3083FC01E459FF4F849188
S1131EB0E4E0E20FF0E0E05AFD4F80832A5F8D9169
S1131EC08111C6CF912CA0E6B2E080E090E02D9184
S1131ED0E0910201F0910301E80FF91F20830196BC
S1131EE09816A8F7892DE0910201F0910301E80FFB
S1131EF0F11D10828F5F8034B1F7AAE08A2E84E04E
S1131F00282E81E0382E20E030E091E0022E01C03E
S1131F10990F0A94EAF78FE35AC059985B9A5B9831
S1131F20EFEFE80FF0E0E056FD4F4081492309F060
S1131F303CC259985B9A5B98EEEFE80FF0E0E056EC
S1131F40FD4F4081492309F02EC259985B9A5B9852
S1131F50EDEFE80FF0E0E056FD4F4081492309F032
S1131F6020C259985B9A5B98ECEFE80FF0E0E056DA
S1131F70FD4F4081492309F012C259985B9A5B983E
S1131F80EBEFE80FF0E0E056FD4F4081492309F004
S1131F9004C259985B9A5B98EAEFE80FF0E0E056C8
S1131FA0FD4F4081492309F0F6C159985B9A5B982B
S1131FB0E9EFE80FF0E0E056FD4F4081492391F549
S1131FC059985B9A5B9888505A9A8F3F91F15A9826
S1131FD0E82FF0E0E056FD4F4081492309F49DCFFE
S1131FE0599A9CCF599A56CE599A48CE599A3ACE74
S1131FF0599A2CCE599A1ECE599A10CEB7E0EB9F1F
S1132000F0011124EC5AFE4FA281B3814C9121E0DE
S113201030E0068002C0220F331F0A94E2F7242B1B
S11320202C93A6CE599A5B9A5B9888505A9A8F3F04
S113203071F6A4E0B1E0ED91EE2301F1EC3CD8F7A8
S113204047E0E49FF0011124BF016C5A7E4FFB016D
S113205042815381FA01908144244394512CFB0121
S1132060068002C0440C551C0A94E2F7842D809526
S11320708923FA018083ED91E111E0CFD101ED9143
S11320801D01EC3C08F493C1809100019091010181
S113209097FD08C0EFE9FFE03197F1F700C00000B9
S11320A00197C0F7A4E0B1E0ED91EE2301F1EC3C1F
S11320B0D8F747E0E49FF0011124BF016C5A7E4F2A
S11320C0FB0142815381FA01908144244394512CB1
S11320D0FB01068002C0440C551C0A94E2F7842DCF
S11320E080958923FA018083ED91E111E0CF89E0A5
S11320F090E05A9859985B9A5B9859985B9A5B98C8
S113210059985B9A5B9859985B9A5B9859985B9A33
S11321105B9859985B9A5B9859985B9A5B98599825
S11321205B9A5B985A9A019721F72F5F3F4F2730AC
S1132130310509F0EACEF0920101E09200018A949F
S11321408110DDCE9394F0E49F12BDCED8011D9290
S11321509A94E9F7A2E1B1E020E08AE48052E5E054
S11321608E9FC0011124FC01E859FF4F3491E22FE6
S1132170F0E0E05AFD4F3083FC01E759FF4F349102
S1132180E1E0E20FF0E0E05AFD4F3083FC01E65954
S1132190FF4F3491E2E0E20FF0E0E05AFD4F30836C
S11321A0FC01E559FF4F3491E3E0E20FF0E0E05A1F
S11321B0FD4F3083FC01E459FF4F8491E4E0E20FCA
S11321C0F0E0E05AFD4F80832A5F8D918111C6CFE4
S11321D0B2E3AB2E80E692E00E944101AA94A110E2
S11321E0F9CFD801EB2D1D92EA95E9F720E08AE4B6
S11321F0AB81BC818052F5E08F9FC0011124FC01AA
S1132200E859FF4F3491E22FF0E0E05AFD4F30835C
S1132210FC01E759FF4F3491E1E0E20FF0E0E05AAE
S1132220FD4F3083FC01E659FF4F3491E2E0E20FA9
S1132230F0E0E05AFD4F3083FC01E559FF4F349143
S1132240E3E0E20FF0E0E05AFD4F3083FC01E45993
S1132250FF4F8491E4E0E20FF0E0E05AFD4F808309
S11322602A5F8D91BC83AB838111C4CFAFE3AA2EC7
S113227040E0842F90E0FC01E05AFD4F2081609102
S1132280020170910301FB01E80FF91F20834F5FE6
S1132290A41678F7AA948A2DE0910201F091030123
S11322A0E80FF11D10828F5F8034B1F7FAE09F2EA2
S11322B0A4E02A2EA1E03A2E20E030E091E0022EA4
S11322C001C0990F0A94EAF78FE35AC059985B9AB0
S11322D05B98EFEFE80FF0E0E056FD4F40814923B3
S11322E009F088C159985B9A5B98EEEFE80FF0E02B
S11322F0E056FD4F4081492309F07AC159985B9A11
S11323005B98EDEFE80FF0E0E056FD4F4081492384
S113231009F06CC159985B9A5B98ECEFE80FF0E018
S1132320E056FD4F4081492309F05EC159985B9AFC
S11323305B98EBEFE80FF0E0E056FD4F4081492356
S113234009F050C159985B9A5B98EAEFE80FF0E006
S1132350E056FD4F4081492309F042C159985B9AE8
S11323605B98E9EFE80FF0E0E056FD4F4081492328
S113237091F559985B9A5B9888505A9A8F3F91F1DE
S11323805A98E82FF0E0E056FD4F4081492309F4C4
S11323909DCF599A9CCF599A09CE599AFBCD599AF7
S11323A0EDCD599ADFCD599AD1CD599AC3CDB7E025
S11323B0EB9FF0011124EC5AFE4FA281B3816C9182
S11323C041E050E0068002C0440F551F0A94E2F732
S11323D0462B4C9359CE599A5B9A5B9888505A9ADB
S11323E08F3F71F6A4E0B1E0ED91EE2301F1EC3CF6
S11323F0D8F747E0E49FF0011124BF016C5A7E4FE7
S1132400FB0142815381FA01908144244394512C6D
S1132410FB01068002C0440C551C0A94E2F7842D8B
S113242080958923FA018083ED91E111E0CFD101F8
S1132430ED911D01EC3C08F4DFC080910001909106
S1132440010197FD08C0EFE9FFE03197F1F700C003
S113245000000197C0F7A4E0B1E0ED91EE2301F193
S1132460EC3CD8F747E0E49FF0011124BF016C5A1B
S11324707E4FFB0142815381FA01908144244394AD
S1132480512CFB01068002C0440C551C0A94E2F74F
S1132490842D80958923FA018083ED91E111E0CFA9
S11324A089E090E05A9859985B9A5B9859985B9A9E
S11324B05B9859985B9A5B9859985B9A5B98599882
S11324C05B9A5B9859985B9A5B9859985B9A5B986E
S11324D059985B9A5B985A9A019721F72F5F3F4F5F
S11324E02730310509F0EACEF0920101E0920001B3
S11324F09A949110DDCEA110BBCEFAE0AF2E64E029
S113250071E080E090E031E0082E01C0330F0A94BE
S1132510EAF72FE35AC059985B9A5B98EFEFE20F02
S1132520F0E0E056FD4F4081432309F036C259984C
S11325305B9A5B98EEEFE20FF0E0E056FD4F4081CE
S1132540432309F028C259985B9A5B98EDEFE20F98
S1132550F0E0E056FD4F4081432309F01AC2599838
S11325605B9A5B98ECEFE20FF0E0E056FD4F4081A0
S1132570432309F00CC259985B9A5B98EBEFE20F86
S1132580F0E0E056FD4F4081432309F0FEC1599825
S11325905B9A5B98EAEFE20FF0E0E056FD4F408172
S11325A0432309F0F0C159985B9A5B98E9EFE20F75
S11325B0F0E0E056FD4F4081432391F559985B9A32
S11325C05B9828505A9A2F3F91F15A98E22FF0E0E5
S11325D0E056FD4F4081432309F49DCF599A9CCF87
S11325E0599ABDCE599AAFCE599AA1CE599A93CE43
S11325F0599A85CE599A77CEB7E0EB9FF001112412
S1132600EC5AFE4FA281B3816C9141E050E0068008
S113261002C0440F551F0A94E2F7462B4C930DCF8A
S1132620599A5B9A5B9828505A9A2F3F71F6A4E006
S1132630B1E0ED91EE2309F1EC3CD8F727E0E29FFD
S1132640F0011124AF014C5A5E4F1A01FA01428184
S11326505381FA01208188248394912CF10106800E
S113266002C0880C991C0A94E2F7E82DE0952E2309
S1132670FA012083ED91E111DFCFDB01ED91BD0182
S1132680EC3C98F4B7E0EB9FF0011124EC5AFE4FB8
S1132690A281B3814C9121E030E0068002C0220F78
S11326A0331F0A94E2F7242B2C93209100013091DC
S11326B0010137FD09C0EFE9FFE03197F1F700C0F0
S11326C0000021503109B8F7A4E0B1E0ED91EE2308
S11326D009F1EC3CD8F727E0E29FF0011124AF01A7
S11326E04C5A5E4F1A01FA0142815381FA0120814A
S11326F088248394912CF101068002C0880C991CD3
S11327000A94E2F7E82DE0952E23FA012083ED9157
S1132710E111DFCF29E030E05A9859985B9A5B9831
S113272059985B9A5B9859985B9A5B9859985B9A0D
S11327305B9859985B9A5B9859985B9A5B985998FF
S11327405B9A5B9859985B9A5B985A9A2150310925
S113275019F701968730910509F0D5CE22242394E8
S1132760312C3092010120920001AA94A110C7CE0D
S1132770D801EB2D1D92EA95E9F7BCE08B2EB1E070
S11327809B2ED40120E183E58052F5E08F9FC001A8
S11327901124FC01E859FF4F3491E22FF0E0E05A94
S11327A0FD4F3083FC01E759FF4F3491E1E0E20F24
S11327B0F0E0E05AFD4F3083FC01E659FF4F3491BD
S11327C0E2E0E20FF0E0E05AFD4F3083FC01E5590E
S11327D0FF4F3491E3E0E20FF0E0E05AFD4F308325
S11327E0FC01E459FF4F8491E4E0E20FF0E0E05A89
S11327F0FD4F80832A5F8D918111C6CF84E690E0DE
S11328009093010180930001A4E6AA2E80E692E051
S11328100E944101AA94A110F9CFD801EB2D1D9279
S1132820EA95E9F7ACE0B1E020E183E58052F5E018
S11328308F9FC0011124FC01E859FF4F3491E22F0E
S1132840F0E0E05AFD4F3083FC01E759FF4F34912B
S1132850E1E0E20FF0E0E05AFD4F3083FC01E6597D
S1132860FF4F3491E2E0E20FF0E0E05AFD4F308395
S1132870FC01E559FF4F3491E3E0E20FF0E0E05A48
S1132880FD4F3083FC01E459FF4F8491E4E0E20FF3
S1132890F0E0E05AFD4F80832A5F8D918111C6CF0D
S11328A0F2E3AF2E64E071E080E090E031E0082EC6
S11328B001C0330F0A94EAF72FE35AC059985B9A80
S11328C05B98EFEFE20FF0E0E05AFD4F40814323C5
S11328D009F0DCC159985B9A5B98EEEFE20FF0E0E7
S11328E0E05AFD4F4081432309F0CEC159985B9AC9
S11328F05B98EDEFE20FF0E0E05AFD4F4081432397
S113290009F0C0C159985B9A5B98ECEFE20FF0E0D4
S1132910E05AFD4F4081432309F0B2C159985B9AB4
S11329205B98EBEFE20FF0E0E05AFD4F4081432368
S113293009F0A4C159985B9A5B98EAEFE20FF0E0C2
S1132940E05AFD4F4081432309F096C159985B9AA0
S11329505B98E9EFE20FF0E0E05AFD4F408143233A
S1132960F1F459985B9A5B9828505A9A2F3FF1F0EA
S11329705A98E22FF0E0E05AFD4F4081432309F4D6
S11329809DCF599A9CCF599A0FCE599A01CE599AF4
S1132990F3CD599AE5CD599AD7CD599AC9CD599ABB
S11329A05B9A5B9828505A9A2F3F11F7A4E0B1E044
S11329B0ED91EE2309F1EC3CD8F727E0E29FF0011A
S11329C01124AF014C5A5E4F2A01FA01428153810E
S11329D0FA01308122242394312CF201068002C0B2
S11329E0220C331C0A94E2F7222D20952323FA01AA
S11329F02083ED91E111DFCFDB01ED91BD01EC3CD2
S1132A0008F446C1209100013091010137FD09C04D
S1132A10EFE9FFE03197F1F700C0000021503109E0
S1132A20B8F7A4E0B1E0ED91EE2309F1EC3CD8F75E
S1132A3027E0E29FF0011124AF014C5A5E4F2A01B6
S1132A40FA0142815381FA01308122242394312CEA
S1132A50F201068002C0220C331C0A94E2F7222DF4
S1132A6020952323FA012083ED91E111DFCF29E0A2
S1132A7030E05A9859985B9A5B9859985B9A5B989E
S1132A8059985B9A5B9859985B9A5B9859985B9AAA
S1132A905B9859985B9A5B9859985B9A5B9859989C
S1132AA05B9A5B985A9A2150310919F7019687303D
S1132AB0910509F0FBCE22242394312C309201019C
S1132AC020920001AA94A110EDCED801EB2D1D9205
S1132AD0EA95E9F720E183E58052F5E08F9FC00194
S1132AE01124FC01E859FF4F3491E22FF0E0E05A41
S1132AF0FD4F3083FC01E759FF4F3491E1E0E20FD1
S1132B00F0E0E05AFD4F3083FC01E659FF4F349169
S1132B10E2E0E20FF0E0E05AFD4F3083FC01E559BA
S1132B20FF4F3491E3E0E20FF0E0E05AFD4F3083D1
S1132B30FC01E459FF4F8491E4E0E20FF0E0E05A35
S1132B40FD4F80832A5FD4018D914D018111C4CF43
S1132B50912C80E090E0E0910201F0910301E80FF4
S1132B60F91F108201969816B0F7492D842F90E032
S1132B70FC01E05AFD4F2081609102017091030134
S1132B80FB01E80FF91F20834F5F403479F7FAE027
S1132B90AF2EA4E02A2EA1E03A2E20E030E091E00E
S1132BA0022E01C0990F0A94EAF78FE35AC059988C
S1132BB05B9A5B98EFEFE80FF0E0E056FD4F408141
S1132BC0492309F0EAC159985B9A5B98EEEFE80F44
S1132BD0F0E0E056FD4F4081492309F0DCC15998EB
S1132BE05B9A5B98EDEFE80FF0E0E056FD4F408113
S1132BF0492309F0CEC159985B9A5B98ECEFE80F32
S1132C00F0E0E056FD4F4081492309F0C0C15998D6
S1132C105B9A5B98EBEFE80FF0E0E056FD4F4081E4
S1132C20492309F0B2C159985B9A5B98EAEFE80F1F
S1132C30F0E0E056FD4F4081492309F0A4C15998C2
S1132C405B9A5B98E9EFE80FF0E0E056FD4F4081B6
S1132C50492391F559985B9A5B9888505A9A8F3F0B
S1132C6091F15A98E82FF0E0E056FD4F4081492356
S1132C7009F49DCF599A9CCF599A69CE599A5BCE43
S1132C80599A4DCE599A3FCE599A31CE599A23CE5C
S1132C90B7E0EB9FF0011124EC5AFE4FA281B381FF
S1132CA04C9121E030E0068002C0220F331F0A94C9
S1132CB0E2F7242B2C93A6CE599A5B9A5B98885002
S1132CC05A9A8F3F71F6A4E0B1E0ED91EE2301F141
S1132CD0EC3CD8F747E0E49FF0011124BF016C5AA3
S1132CE07E4FFB0142815381FA0190814424439435
S1132CF0512CFB01068002C0440C551C0A94E2F7D7
S1132D00842D80958923FA018083ED91E111E0CF30
S1132D10D101ED911D01EC3C08F441C18091000109
S1132D209091010197FD08C0EFE9FFE03197F1F7B9
S1132D3000C000000197C0F7A4E0B1E0ED91EE23DC
S1132D4001F1EC3CD8F747E0E49FF0011124BF0106
S1132D506C5A7E4FFB0142815381FA0190814424D5
S1132D604394512CFB01068002C0440C551C0A9468
S1132D70E2F7842D80958923FA018083ED91E11196
S1132D80E0CF89E090E05A9859985B9A5B985998FB
S1132D905B9A5B9859985B9A5B9859985B9A5B9895
S1132DA059985B9A5B9859985B9A5B9859985B9A87
S1132DB05B9859985B9A5B985A9A019721F72F5F11
S1132DC03F4F2730310509F0EACEF0920101E0923D
S1132DD00001AA94A110DDCE9394F0E49F12B9CE21
S1132DE0A1EEB2E0E92D1D92EA95E9F7A0E2B2E086
S1132DF01D929A94E9F72AE331E03A832983D901B1
S1132E008D91BA83A983882309F46BC1805235E07C
S1132E10839FC0011124FC01E859FF4FE491E09322
S1132E202103FC01E759FF4FE491E0932203FC01E5
S1132E30E659FF4FE491E0932303FC01E559FF4F6A
S1132E40E491E0932403FC01E459FF4FE491E093FF
S1132E502503F1E28F2EF3E09F2ED4019D914D01C5
S1132E6080E4E1EEF2E0A0E2B2E001900D928A95F6
S1132E70E1F79093200380915F0280931F032EE378
S1132E802150822F90E0FC01EF51FD4FDC01A05E48
S1132E90BD4F11968C9180832111F2CFAAE0AA2E06
S1132EA024E031E080E090E051E0082E01C0550FAD
S1132EB00A94EAF74FE35CC059985B9A5B98EFEF8A
S1132EC0E40FF0E0EF51FD4F6081652309F0E4C2A7
S1132ED059985B9A5B98EEEFE40FF0E0EF51FD4FE9
S1132EE06081652309F0D6C259985B9A5B98EDEF2F
S1132EF0E40FF0E0EF51FD4F6081652309F0C8C293
S1132F0059985B9A5B98ECEFE40FF0E0EF51FD4FBA
S1132F106081652309F0BAC259985B9A5B98EBEF1C
S1132F20E40FF0E0EF51FD4F6081652309F0ACC27E
S1132F3059985B9A5B98EAEFE40FF0E0EF51FD4F8C
S1132F406081652309F09EC259985B9A5B98E9EF0A
S1132F50E40FF0E0EF51FD4F6081652309F060C19B
S1132F6059985B9A5B9848505A9A4F3F09F460C14C
S1132F705A98E42FF0E0EF51FD4F6081652309F486
S1132F809BCF599A9ACF599A5BCE599A4DCE599A5A
S1132F903FCE599A31CE599A23CE599A15CEB7E0DD
S1132FA0EB9FF0011124EC5AFE4FA281B3816C9186
S1132FB041E050E0068002C0440F551F0A94E2F736
S1132FC0462B4C93ABCEA4E0B1E0ED91EE2301F19E
S1132FD0EC3CD8F747E0E49FF0011124BF016C5AA0
S1132FE07E4FFB0142815381FA0190812224239474
S1132FF0312CFB01068002C0220C331C0A94E2F738
S1133000822D80958923FA018083ED91E111E0CF2F
S1133010D401ED914D01EC3C08F440C280910001D3
S11330209091010197FD08C0EFE9FFE03197F1F7B6
S113303000C000000197C0F7A4E0B1E0ED91EE23D9
S113304001F1EC3CD8F747E0E49FF0011124BF0103
S11330506C5A7E4FFB0142815381FA0190812224F4
S11330602394312CFB01068002C0220C331C0A94E9
S1133070E2F7822D80958923FA018083ED91E11195
S1133080E0CF89E090E05A9859985B9A5B985998F8
S11330905B9A5B9859985B9A5B9859985B9A5B9892
S11330A059985B9A5B9859985B9A5B9859985B9A84
S11330B05B9859985B9A5B985A9A019721F72F5F0E
S11330C03F4F2730310599F5F0920101E09200015C
S11330D0AA94A11026C0F1E0CF1AD10811F40C94DF
S11330E0A00280E4E1EEF2E0A0E2B2E001900D92F1
S11330F08A95E1F71092200380915F0280931F0369
S11331002EE32150822F90E0FC01EF51FD4FDC01B2
S1133110A05EBD4F11968C9180832111F2CF9AE06D
S1133120A92E84E0882E81E0982E20E030E091E002
S1133130022E01C0990F0A94EAF78FE358C05998F8
S11331405B9A5B98EFEFE80FF0E0EF51FD4F4081A1
S1133150492309F063C059985B9A5B98EEEFE80F36
S1133160F0E0EF51FD4F4081492309F055C05998D3
S11331705B9A5B98EDEFE80FF0E0EF51FD4F408173
S1133180492309F047C059985B9A5B98ECEFE80F24
S1133190F0E0EF51FD4F40814923D1F559985B9AF6
S11331A05B98EBEFE80FF0E0EF51FD4F40814923CE
S11331B069F559985B9A5B98EAEFE80FF0E0EF51F4
S11331C0FD4F4081492301F559985B9A5B98E9EFDB
S11331D0E80FF0E0EF51FD4F4081492399F45998ED
S11331E05B9A5B9888505A9A8F3F09F4ECCE5A98B0
S11331F0E82FF0E0EF51FD4F4081492309F49FCFC0
S1133200599A9ECF599AECCF599ADFCF599AD2CF77
S1133210599AC5CF599AB8CF599AAACF599A9CCFDF
S1133220599A5B9A5B9848505A9A4F3F09F0A0CE3E
S1133230A4E0B1E0ED91EE2309F1EC3CD8F747E0CE
S1133240E49FF0011124BF016C5A7E4F2B01FB0156
S113325062817381FB01508122242394312CF20179
S1133260068002C0220C331C0A94E2F7422D4095DA
S11332704523FB014083ED91E111DFCFD901ED91AD
S11332809D01EC3C08F41EC14091000150910101E4
S113329057FD09C0EFE9FFE03197F1F700C00000E6
S11332A041505109B8F7A4E0B1E0ED91EE2309F1E2
S11332B0EC3CD8F747E0E49FF0011124BF016C5ABD
S11332C07E4F2B01FB0162817381FB01508122241B
S11332D02394312CF201068002C0220C331C0A9480
S11332E0E2F7422D40954523FB014083ED91E11126
S11332F0DFCF49E050E05A9859985B9A5B98599807
S11333005B9A5B9859985B9A5B9859985B9A5B981F
S113331059985B9A5B9859985B9A5B9859985B9A11
S11333205B9859985B9A5B985A9A4150510919F7DE
S113333001968730910509F0B7CD22242394312CCE
S11333403092010120920001AA94A110A9CDF6E2C5
S11333504F2EF3E05F2E4814590409F07ECD80E42B
S1133360E1EEF2E0A0E2B2E001900D928A95E1F77D
S11333701092200380915F0280931F038EE381509B
S1133380282F30E0F901EF51FD4FD901A05EBD4F68
S113339011969C9190838111F2CFAAE09A2E64E059
S11333A071E080E090E031E0082E01C0330F0A9410
S11333B0EAF72FE35CC059985B9A5B98EFEFE20F52
S11333C0F0E0EF51FD4F4081432309F030C159989B
S11333D05B9A5B98EEEFE20FF0E0EF51FD4F408116
S11333E0432309F022C159985B9A5B98EDEFE20FF1
S11333F0F0E0EF51FD4F4081432309F014C1599887
S11334005B9A5B98ECEFE20FF0E0EF51FD4F4081E7
S1133410432309F006C159985B9A5B98EBEFE20FDE
S1133420F0E0EF51FD4F4081432309F0F8C0599873
S11334305B9A5B98EAEFE20FF0E0EF51FD4F4081B9
S1133440432309F0EAC059985B9A5B98E9EFE20FCD
S1133450F0E0EF51FD4F4081432309F047C05998F4
S11334605B9A5B9828505A9A2F3F09F447C05A98A0
S1133470E22FF0E0EF51FD4F4081432309F49BCF4D
S1133480599A9ACF599A61CD599A53CD599A45CDA3
S1133490599A37CD599A29CD599A1BCDB7E0EB9F4C
S11334A0F0011124EC5AFE4FA281B3816C9181E0AA
S11334B090E0068002C0880F991F0A94E2F7862BD9
S11334C08C93ACCDB7E0EB9FF0011124EC5AFE4F86
S11334D0A281B3816C9141E050E0068002C0440FA8
S11334E0551F0A94E2F7462B4C93CECE599A5B9A19
S11334F05B9828505A9A2F3F09F0B9CFA4E0B1E065
S1133500ED91EE2309F1EC3CD8F727E0E29FF001BE
S11335101124AF014C5A5E4F2A01FA0142815381B2
S1133520FA01308122242394312CF201068002C056
S1133530220C331C0A94E2F7222D20952323FA014E
S11335402083ED91E111DFCFDB01ED91BD01EC3C76
S113355008F46FC0209100013091010137FD09C0CA
S1133560EFE9FFE03197F1F700C000002150310985
S1133570B8F7A4E0B1E0ED91EE2309F1EC3CD8F703
S113358027E0E29FF0011124AF014C5A5E4F2A015B
S1133590FA0142815381FA01308122242394312C8F
S11335A0F201068002C0220C331C0A94E2F7222D99
S11335B020952323FA012083ED91E111DFCF29E047
S11335C030E05A9859985B9A5B9859985B9A5B9843
S11335D059985B9A5B9859985B9A5B9859985B9A4F
S11335E05B9859985B9A5B9859985B9A5B98599841
S11335F05B9A5B985A9A2150310919F701968730E2
S1133600910509F0D0CEF0920101E09200019A9464
S11336109110C5CEA981BA81F3CB599A15CF599A85
S113362007CF599AF9CE599AEBCE599ADDCE599AC9
S1133630CFCEB7E0EB9FF0011124EC5AFE4FA281EC
S1133640B3814C9121E030E0068002C0220F331F89
S11136500A94E2F7242B2C937DCFF894FFCF3D
S113365E0100A0020C0D0E0F1011125348415245D9
S113366E004A4F494E00434F4445004841434B00E6
S113367E4D414B45004D414B454841434B53004D45
S113368E414B45524841434B53004D414B455248E3
S113369E41434B53206279204D5543484952494A80
S11336AE4F484E00000000000000002700280026AE
S11336BE00062A002B002900002A002B00290001F5
S11336CE2A002B002900022A002B002900032A00BD
S11336DE2B00290004000000000000000000000080
S11336EE00000024002500230006240025002300EA
S11336FE072A002B002900052A002B002900062A80
S113370E002B002900072400250023000024002597
S113371E0023000124002500230002240025002399
S113372E00032400250023000424002500230005A3
S113373E0000000000000000000000000000000077
S113374E00000000002700280026000027002800A3
S113375E2600012700280026000227002800260044
S113376E0327002800260004270028002600050051
S9030000FC
