:100000000C9422010C943F010C943F010C943F018D
:100010000C943F010C943F010C943F010C943F0160
:100020000C943F010C943F010C943F010C943F0150
:100030000C943F010C943F010C943F010C943F0140
:100040000C943F010C943F010C943F010C943F0130
:100050000C943F010C943F010C943F010C943F0120
:100060000C943F010C943F01000000000000005F71
:1000700000000007000700147F147F14242A7F2A41
:100080001223130864623649562050000807030003
:10009000001C2241000041221C002A1C7F1C2A084F
:1000A000083E0808008070300008080808080000B2
:1000B00060600020100804023E5149453E00427F26
:1000C000400072494949462141494D331814127F75
:1000D0001027454545393C4A494931412111090715
:1000E0003649494936464949291E00001400000096
:1000F0004034000000081422411414141414004168
:1001000022140802015909063E415D594E7C121124
:10011000127C7F494949363E414141227F4141415C
:100120003E7F494949417F090909013E41415173D7
:100130007F0808087F00417F41002040413F017F48
:10014000081422417F404040407F021C027F7F0410
:1001500008107F3E4141413E7F090909063E415159
:10016000215E7F09192946264949493203017F0149
:10017000033F4040403F1F2040201F3F4038403F4A
:10018000631408146303047804036159494D430060
:100190007F4141410204081020004141417F040297
:1001A000010204404040404000030708002054542E
:1001B00078407F284444383844444428384444280C
:1001C0007F385454541800087E090218A4A49C785F
:1001D0007F0804047800447D40002040403D007FBB
:1001E0001028440000417F40007C047804787C089B
:1001F0000404783844444438FC182424181824246F
:1002000018FC7C08040408485454542404043F4453
:10021000243C4040207C1C2040201C3C4030403C82
:1002200044281028444C9090907C4464544C4400E2
:100230000836410000007700000041360800020146
:100240000204020011241FBECFEFD8E0DEBFCDBFF5
:1002500012E0A0E0B1E0E0E4F8E302C005900D9206
:10026000A031B107D9F723E0A0E1B2E001C01D92AF
:10027000A631B207E1F70E9487020C941E1C0C9471
:100280000000CF92DF92EF92FF921F93CF93DF9304
:10029000AC0184E0E82E81E0F82EC12CD12C61E085
:1002A00070E0262F0C2C01C0220F0A94EAF79FE37E
:1002B0005AC059985B9A5B988FEF890FFA01E80F43
:1002C000F11D8081822309F0E7C059985B9A5B9801
:1002D0008EEF890FFA01E80FF11D8081822309F06A
:1002E000D9C059985B9A5B988DEF890FFA01E80F96
:1002F000F11D8081822309F0CBC059985B9A5B98ED
:100300008CEF890FFA01E80FF11D8081822309F03B
:10031000BDC059985B9A5B988BEF890FFA01E80F83
:10032000F11D8081822309F0AFC059985B9A5B98D8
:100330008AEF890FFA01E80FF11D8081822309F00D
:10034000A1C059985B9A5B9889EF890FFA01E80F71
:10035000F11D8081822389F459985B9A5B989850AB
:100360005A9A9F3F89F05A98FA01E90FF11D80814E
:10037000822309F49ECF599A9DCF599A5B9A5B9834
:1003800098505A9A9F3F79F7C4E0D1E0E991EE2363
:10039000C9F0EC3CD8F727E0E29FF0011124EC5BB8
:1003A000FE4FA281B3813C91CB01068002C0880F31
:1003B000991F0A94E2F7282F209523232C93E99183
:1003C000E111E7CFD701ED917D01EC3C08F466C067
:1003D000809100019091010197FD08C0EFE9FFE0D5
:1003E0003197F1F700C000000197C0F7C4E0D1E0F9
:1003F000E991EE23C9F0EC3CD8F727E0E29FF00149
:100400001124EC5BFE4FA281B3813C91CB010680AD
:1004100002C0880F991F0A94E2F7282F2095232302
:100420002C93E991E111E7CF89E090E05A9859982F
:100430005B9A5B9859985B9A5B9859985B9A5B9822
:1004400059985B9A5B9859985B9A5B9859985B9A14
:100450005B9859985B9A5B9859985B9A5B985A9A03
:10046000019721F79FEFC91AD90AA7E0CA16D1044C
:1004700009F017CFDF91CF911F91FF90EF90DF90A0
:10048000CF900895599A5ECF599A50CF599A42CF3A
:10049000599A34CF599A26CF599A18CFB7E0EB9F83
:1004A000F0011124EC5BFE4FC281D3811881CB0196
:1004B000068002C0880F991F0A94E2F7812B888377
:1004C00087CFCF93DF93519A529A539AA4E0B1E029
:1004D00041E050E0ED91EE23B9F0EC3CD8F787E035
:1004E000E89FF0011124EC5BFE4FC081D18128818F
:1004F000CA01068002C0880F991F0A94E2F7822B76
:100500008883ED91E111E9CFDF91CF910895CF93E9
:10051000DF9300D000D000D0CDB7DEB70E946102DB
:1005200020E532E03A83298310E4B12E02E9602EFF
:1005300002E0702E890164E071E0DB01ED91BD0104
:10054000EE23C1F0EC3CC8F737E0E39FF001112443
:10055000EC5BFE4F22813381D9018C9141E050E068
:10056000068002C0440F551F0A94E2F74095842389
:100570008C93E3CF89E090E05A9859985B9A5B9806
:1005800059985B9A5B9859985B9A5B9859985B9AD3
:100590005B9859985B9A5B9859985B9A5B985998C5
:1005A0005B9A5B9859985B9A5B985A9A019721F7E6
:1005B000E981FA812B2C11922A94E9F72FE131E09D
:1005C000B0E5EB2EB2E0FB2ED701F90181919F013E
:1005D000882351F1805245E0849FC0011124FC0121
:1005E000E859FF4FE491EC93FC01E759FF4FE49188
:1005F0001196EC931197FC01E659FF4FE491129686
:10060000EC931297FC01E559FF4FE4911396EC939C
:100610001397FC01E459FF4F849114968C9314971F
:1006200016966A167B0689F6A2E3DA2E80E592E03A
:100630000E944101DA94D110F9CFD801EB2D1D921F
:10064000EA95E9F725E131E0A0E5B2E0F901819111
:100650009F01882351F18052F5E08F9FC001112442
:10066000FC01E859FF4FE491EC93FC01E759FF4F7F
:10067000E4911196EC931197FC01E659FF4FE49138
:100680001296EC931297FC01E559FF4FE4911396F3
:10069000EC931397FC01E459FF4F849114968C93CB
:1006A000149716966A167B0689F64FE350E0942F4E
:1006B00080E0282F30E0F901E41BF50BE057FD4FF7
:1006C0006081E0910201F0910301E20FF31F60836A
:1006D0008F5F981770F7E0910201F0910301E90F25
:1006E000F11D10829F5F9034B1F7FAE0CF2E24E025
:1006F00031E080E090E071E0082E01C0770F0A94AD
:10070000EAF76FE35AC059985B9A5B98EFEFE60FF0
:10071000F0E0E057FD4FE081E72309F054C259981B
:100720005B9A5B98EEEFE60FF0E0E057FD4FE0815B
:10073000E72309F046C259985B9A5B98EDEFE60F04
:10074000F0E0E057FD4FE081E72309F038C2599807
:100750005B9A5B98ECEFE60FF0E0E057FD4FE0812D
:10076000E72309F02AC259985B9A5B98EBEFE60FF2
:10077000F0E0E057FD4FE081E72309F01CC25998F3
:100780005B9A5B98EAEFE60FF0E0E057FD4FE081FF
:10079000E72309F00EC259985B9A5B98E9EFE60FE0
:1007A000F0E0E057FD4FE081E72391F459985B9A20
:1007B0005B9868505A9A6F3F91F05A98E62FF0E094
:1007C000E057FD4FE081E72309F49DCF599A9CCF74
:1007D000599A5B9A5B9868505A9A6F3F71F7A4E0F8
:1007E000B1E0ED91EE2309F1EC3CD8F767E0E69F2C
:1007F000F0011124BF016C5B7E4F2B01FB01828055
:100800009380F401708122242394312CF20106801C
:1008100002C0220C331C0A94E2F7622D6095672314
:10082000F4016083ED91E111DFCFD901ED919D01DC
:10083000EC3C08F4CAC1609100017091010177FDA0
:1008400009C0EFE9FFE03197F1F700C00000615007
:100850007109B8F7A4E0B1E0ED91EE2309F1EC3CA9
:10086000D8F767E0E69FF0011124BF016C5B7E4F73
:100870002B01FB0182809380F40170812224239458
:10088000312CF201068002C0220C331C0A94E2F7DC
:10089000622D60956723F4016083ED91E111DFCF54
:1008A00069E070E05A9859985B9A5B9859985B9AFE
:1008B0005B9859985B9A5B9859985B9A5B985998A2
:1008C0005B9A5B9859985B9A5B9859985B9A5B988E
:1008D00059985B9A5B985A9A6150710919F7019679
:1008E0008730910509F007CFCA94C11000CF41505D
:1008F000510909F0DCCED801EB2D1D92EA95E9F7FC
:10090000A0E1CA2EA1E0DA2EA0E5B2E09601F9013D
:1009100081919F01882359F18052F5E08F9FC0019A
:100920001124FC01E859FF4FE491EC93FC01E759D5
:10093000FF4FE4911196EC931197FC01E659FF4F9C
:10094000E4911296EC931297FC01E559FF4FE49164
:100950001396EC931397FC01E459FF4F849114967E
:100960008C931497169642E0A239B40781F6F4E00E
:100970009F2EEAE0AE2E80E592E00E944101AA940B
:10098000A110F9CF64E071E0DB01ED91BD01EE2330
:10099000E1F0EC3CC8F727E0E29FF0011124EC5BAA
:1009A000FE4F22813381D9018C9141E050E00680D5
:1009B00002C0440F551F0A94E2F7409584238C939C
:1009C000DB01ED91BD01E111E4CF89E090E05A989F
:1009D00059985B9A5B9859985B9A5B9859985B9A7F
:1009E0005B9859985B9A5B9859985B9A5B98599871
:1009F0005B9A5B9859985B9A5B9859985B9A5B985D
:100A00005A9A019721F7BFEFE9E6F8E1B150E040CB
:100A1000F040E1F700C000009A949110AACFD801ED
:100A2000EB2D1D92EA95E9F7A0E5B2E0F601819180
:100A30006F01882351F18052F5E08F9FC00111248E
:100A4000FC01E859FF4FE491EC93FC01E759FF4F9B
:100A5000E4911196EC931197FC01E659FF4FE49154
:100A60001296EC931297FC01E559FF4FE49113960F
:100A7000EC931397FC01E459FF4F849114968C93E7
:100A8000149716966A167B0689F6C12CD12C2C2D4C
:100A900080E090E0E0910201F0910301E80FF91F7E
:100AA000108201962817B0F7822F90E0FC01EC1914
:100AB000FD09E05BFD4F308140910201509103013F
:100AC000FA01E80FF91F30832F5F203469F76AE0DD
:100AD00084E091E0812C912C31E0082C01C0330F8F
:100AE0000A94EAF72FE35AC059985B9A5B98EFEFA4
:100AF000E20FF0E0E057FD4F4081432309F024C2AC
:100B000059985B9A5B98EEEFE20FF0E0E057FD4FEB
:100B10004081432309F016C259985B9A5B98EDEF28
:100B2000E20FF0E0E057FD4F4081432309F008C297
:100B300059985B9A5B98ECEFE20FF0E0E057FD4FBD
:100B40004081432309F0FAC159985B9A5B98EBEF17
:100B5000E20FF0E0E057FD4F4081432309F0ECC184
:100B600059985B9A5B98EAEFE20FF0E0E057FD4F8F
:100B70004081432309F0DEC159985B9A5B98E9EF05
:100B8000E20FF0E0E057FD4F4081432391F5599883
:100B90005B9A5B9828505A9A2F3F91F15A98E22F0E
:100BA000F0E0E057FD4F4081432309F49DCF599A6F
:100BB0009CCF599AF1CD599AE3CD599AD5CD599AEE
:100BC000C7CD599AB9CD599AABCDB7E0EB9FF0019B
:100BD0001124EC5BFE4FA281B381DC9061E070E0F8
:100BE000068002C0660F771F0A94E2F76D296C93A6
:100BF00022CE599A5B9A5B9828505A9A2F3F71F6E9
:100C0000A4E0B1E0ED91EE2309F1EC3CD8F727E048
:100C1000E29FF0011124AF014C5B5E4F2A01FA0103
:100C200042815381FA01308122242394312CF20134
:100C3000068002C0220C331C0A94E2F7222D209574
:100C40002323FA012083ED91E111DFCFDC01ED9147
:100C5000CD01EC3C08F47AC12091000130910101F2
:100C600037FD09C0EFE9FFE03197F1F700C0000060
:100C700021503109B8F7A4E0B1E0ED91EE2309F17C
:100C8000EC3CD8F727E0E29FF0011124AF014C5B68
:100C90005E4F2A01FA0142815381FA0130812224F8
:100CA0002394312CF201068002C0220C331C0A94DA
:100CB000E2F7222D20952323FA012083ED91E11103
:100CC000DFCF29E030E05A9859985B9A5B985998A1
:100CD0005B9A5B9859985B9A5B9859985B9A5B987A
:100CE00059985B9A5B9859985B9A5B9859985B9A6C
:100CF0005B9859985B9A5B985A9A2150310919F779
:100D0000FFEF8F1A9F0A27E08216910409F0E4CEC4
:100D1000615009F0DDCE3FEFC31AD30A40E4C41698
:100D2000D10409F0B4CED801EB2D1D92EA95E9F774
:100D3000E0E3F1E0849180936302E1E3F1E08491E8
:100D400080936402E2E3F1E0849180936502E3E33F
:100D5000F1E0849180936602E4E3F1E08491809372
:100D60006702EDE0F1E0849180936902EEE0F1E04A
:100D7000849180936A02EFE0F1E0849180936B02AA
:100D8000E0E1F1E0849180936C02E1E1F1E0849193
:100D900080936D02E7E1F1E0849180936F02E8E1D6
:100DA000F1E0849180937002E9E1F1E08491809315
:100DB0007102EAE1F1E0849180937202EBE1F1E0EB
:100DC000849180937302EFE3F1E084918093750244
:100DD000E0E4F1E0849180937602E1E4F1E0849133
:100DE00080937702E2E4F1E0849180937802E3E477
:100DF000F1E0849180937902282DE0E5F2E0CF01C3
:100E000080559240A0910201B0910301A80FB91F33
:100E10008191022E01C0880F0A94EAF78C93B0E901
:100E20002B2EB2E03B2E2E163F0649F740900201D2
:100E300050900301AAE0AA2EC2010E944101AA9487
:100E4000A110FACF21E0821A9108B1F67AE084E08D
:100E5000882E81E0982E80E090E031E0082E01C0DD
:100E6000330F0A94EAF72FE35AC059985B9A5B98BC
:100E7000EFEFE20FF0E0E05BFD4F4081432309F02C
:100E800097C259985B9A5B98EEEFE20FF0E0E05B57
:100E9000FD4F4081432309F089C259985B9A5B98C2
:100EA000EDEFE20FF0E0E05BFD4F4081432309F0FE
:100EB0007BC259985B9A5B98ECEFE20FF0E0E05B45
:100EC000FD4F4081432309F06DC259985B9A5B98AE
:100ED000EBEFE20FF0E0E05BFD4F4081432309F0D0
:100EE0005FC259985B9A5B98EAEFE20FF0E0E05B33
:100EF000FD4F4081432309F051C259985B9A5B989A
:100F0000E9EFE20FF0E0E05BFD4F4081432391F514
:100F100059985B9A5B9828505A9A2F3F91F15A98AA
:100F2000E22FF0E0E05BFD4F4081432309F49DCFC9
:100F3000599A9CCF599A21CE599A13CE599A05CED7
:100F4000599AF7CD599AE9CD599ADBCDB7E0EB9F85
:100F5000F0011124EC5BFE4FA281B3814C9121E0A2
:100F600030E0068002C0220F331F0A94E2F7242BE0
:100F70002C9372CE599A5B9A5B9828505A9A2F3FBD
:100F800071F6A4E0B1E0372FED91EE2301F1EC3CD6
:100F9000D8F747E0E49FF0011124BF016C5B7E4F5E
:100FA000FB0142815381FA01208122242394312CB8
:100FB000FB01068002C0220C331C0A94E2F7B10147
:100FC00060952623FA012083ED91E111E0CF732F84
:100FD000D401ED914D01EC3C98F4B7E0EB9FF001AA
:100FE0001124EC5BFE4FA281B3814C9121E030E0F3
:100FF000068002C0220F331F0A94E2F7242B2C93A1
:10100000209100013091010137FD09C0EFE9FFE0B7
:101010003197F1F700C0000021503109B8F7A4E082
:10102000B1E0372FED91EE2301F1EC3CD8F727E04A
:10103000E29FF0011124BF016C5B7E4FFB014281F6
:101040005381FA01208122242394312CFB01068054
:1010500002C0220C331C0A94E2F7B10160952623EA
:10106000FA012083ED91E111E0CF732F29E030E008
:101070005A9859985B9A5B9859985B9A5B985998DB
:101080005B9A5B9859985B9A5B9859985B9A5B98C6
:1010900059985B9A5B9859985B9A5B9859985B9AB8
:1010A0005B985A9A2150310919F7019687309105BA
:1010B00009F0D3CE715009F0CACED801EB2D1D92A4
:1010C000EA95E9F7E0E3F1E0849180936302E1E3DC
:1010D000F1E0849180936402E2E3F1E084918093F3
:1010E0006502E3E3F1E0849180936602E4E3F1E0DA
:1010F000849180936702EDE0F1E08491809369022E
:10110000EEE0F1E0849180936A02EFE0F1E08491F7
:1011100080936B02E0E1F1E0849180936C02E1E165
:10112000F1E0849180936D02E7E1F1E08491809396
:101130006F02E8E1F1E0849180937002E9E1F1E06F
:10114000849180937102EAE1F1E0849180937202CC
:10115000EBE1F1E0849180937302EFE3F1E084919D
:1011600080937502E0E4F1E0849180937602E1E4FB
:10117000F1E0849180937702E2E4F1E0849180933E
:101180007802E3E4F1E0849180937902B2E3AB2E3C
:1011900080E592E00E944101AA94A110F9CFD80104
:1011A000EB2D1D92EA95E9F7E0E3F1E0849180935D
:1011B0006302E1E3F1E0849180936402E2E3F1E011
:1011C000849180936502E3E3F1E084918093660269
:1011D000E4E3F1E0849180936702EDE0F1E0849133
:1011E00080936902EEE0F1E0849180936A02EFE07F
:1011F000F1E0849180936B02E0E1F1E084918093CF
:101200006C02E1E1F1E0849180936D02E7E1F1E0AD
:10121000849180936F02E8E1F1E084918093700201
:10122000E9E1F1E0849180937102EAE1F1E08491D7
:1012300080937202EBE1F1E0849180937302EFE31B
:10124000F1E0849180937502E0E4F1E08491809371
:101250007602E1E4F1E0849180937702E2E4F1E048
:10126000849180937802E3E4F1E0849180937902A1
:1012700060E070E0262FE0E5F2E0CF01805592407B
:10128000A0910201B0910301A80FB91F819190E0D4
:10129000022E02C0959587950A94E2F78C93A0E9F7
:1012A0002A2EA2E03A2E2E163F0639F7809102012F
:1012B00090910301FAE0AF2EE4E02E2EE1E03E2E05
:1012C000812C912C31E0082C01C0330F0A94EAF7ED
:1012D0002FE35AC059985B9A5B984FEF420FFC017D
:1012E000E40FF11D4081432309F026C359985B9A0E
:1012F0005B984EEF420FFC01E40FF11D4081432348
:1013000009F018C359985B9A5B984DEF420FFC01A6
:10131000E40FF11D4081432309F00AC359985B9AF9
:101320005B984CEF420FFC01E40FF11D4081432319
:1013300009F0FCC259985B9A5B984BEF420FFC0195
:10134000E40FF11D4081432309F0EEC259985B9AE6
:101350005B984AEF420FFC01E40FF11D40814323EB
:1013600009F0E0C259985B9A5B9849EF420FFC0183
:10137000E40FF11D40814323E9F459985B9A5B988F
:1013800028505A9A2F3FE9F05A98FC01E20FF11DBC
:101390004081432309F49ECF599A9DCF599AAECDEF
:1013A000599AA0CD599A92CD599A84CD599A76CD11
:1013B000599A68CD599A5B9A5B9828505A9A2F3F50
:1013C00019F7A4E0B1E09E838D83ED91EE2301F146
:1013D000EC3CD8F727E0E29FF0011124AF014C5B11
:1013E0005E4F2A01FA0142815381FA01308181E086
:1013F00090E0F201068002C0880F991F0A94E2F77C
:10140000282F20952323FA012083ED91E111E0CFCD
:101410008D819E81D101ED911D01EC3C08F48EC2BD
:10142000209100013091010137FD09C0EFE9FFE093
:101430003197F1F700C0000021503109B8F7A4E05E
:10144000B1E09E838D83ED91EE2301F1EC3CD8F762
:1014500027E0E29FF0011124AF014C5B5E4F2A01AF
:10146000FA0142815381FA01308181E090E0F2017A
:10147000068002C0880F991F0A94E2F7282F209552
:101480002323FA012083ED91E111E0CF8D819E812C
:1014900029E030E05A9859985B9A5B9859985B9A82
:1014A0005B9859985B9A5B9859985B9A5B985998A6
:1014B0005B9A5B9859985B9A5B9859985B9A5B9892
:1014C00059985B9A5B985A9A2150310919F7FFEFA6
:1014D0008F1A9F0A27E08216910409F0F3CEAA948E
:1014E000A110EACE6F5F7F4F6830710509F0C2CE60
:1014F000409002015090030152E3A52EC2010E94C8
:101500004101AA94A110FACFD801EB2D1D92EA95C2
:10151000E9F7E7E1F1E0849180937602E8E1F1E018
:10152000849180937702E9E1F1E0849180937802DD
:10153000EAE1F1E0849180937902EBE1F1E08491BA
:1015400080937A02E3E5F1E0849180937C02E4E504
:10155000F1E0849180937D02E5E5F1E08491809350
:101560007E02E6E5F1E0849180937F02E7E5F1E019
:10157000849180938002ECE1F1E084918093820277
:10158000EDE1F1E0849180938302EEE1F1E084915A
:1015900080938402EFE1F1E0849180938502E0E2A0
:1015A000F1E0849180938602E1E2F1E084918093FE
:1015B0008802E2E2F1E0849180938902E3E2F1E0C3
:1015C000849180938A02E4E2F1E0849180938B021B
:1015D000E5E2F1E0849180938C02282DE0E5F2E0D1
:1015E000CF0180559240A0910201B0910301A80F54
:1015F000B91F819190E0022E02C0959587950A94BB
:10160000E2F78C9340E9242E42E0342E2E163F065A
:1016100039F740900201509003013AE0A32EC20135
:101620000E944101AA94A110FACF21E0821A9108E8
:10163000A1F62AE0A22E80E592E00E944101AA9440
:10164000A110F9CFD801EB2D1D92EA95E9F7E7E15A
:10165000F1E0849180937602E8E1F1E08491809357
:101660007702E9E1F1E0849180937802EAE1F1E028
:10167000849180937902EBE1F1E0849180937A0286
:10168000E3E5F1E0849180937C02E4E5F1E084916C
:1016900080937D02E5E5F1E0849180937E02E6E5AA
:1016A000F1E0849180937F02E7E5F1E084918093FB
:1016B0008002ECE1F1E0849180938202EDE1F1E0BF
:1016C000849180938302EEE1F1E08491809384021F
:1016D000EFE1F1E0849180938502E0E2F1E0849112
:1016E00080938602E1E2F1E0849180938802E2E255
:1016F000F1E0849180938902E3E2F1E084918093A8
:101700008A02E4E2F1E0849180938B02E5E2F1E069
:10171000849180938C0292E3A92E80E592E00E944E
:101720004101AA94A110F9CFD801EB2D1D92EA95A1
:10173000E9F7E7E1F1E0849180937602E8E1F1E0F6
:10174000849180937702E9E1F1E0849180937802BB
:10175000EAE1F1E0849180937902EBE1F1E0849198
:1017600080937A02E3E5F1E0849180937C02E4E5E2
:10177000F1E0849180937D02E5E5F1E0849180932E
:101780007E02E6E5F1E0849180937F02E7E5F1E0F7
:10179000849180938002ECE1F1E084918093820255
:1017A000EDE1F1E0849180938302EEE1F1E0849138
:1017B00080938402EFE1F1E0849180938502E0E27E
:1017C000F1E0849180938602E1E2F1E084918093DC
:1017D0008802E2E2F1E0849180938902E3E2F1E0A1
:1017E000849180938A02E4E2F1E0849180938B02F9
:1017F000E5E2F1E0849180938C02812C912C482DBC
:10180000E0E5F2E0CF018055924020910201309155
:101810000301D901A80FB91F9191042E01C0990F9E
:101820000A94EAF79C9380E9282E82E0382E2E163F
:101830003F0641F78091020190910301BAE0AB2E7F
:10184000A4E02A2EA1E03A2E60E070E031E0062EFE
:1018500001C0330F0A94EAF72FE35AC059985B9AF4
:101860005B984FEF420FFC01E40FF11D40814323D1
:1018700009F098C159985B9A5B984EEF420FFC01B2
:10188000E40FF11D4081432309F08AC159985B9A06
:101890005B984DEF420FFC01E40FF11D40814323A3
:1018A00009F07CC159985B9A5B984CEF420FFC01A0
:1018B000E40FF11D4081432309F06EC159985B9AF2
:1018C0005B984BEF420FFC01E40FF11D4081432375
:1018D00009F060C159985B9A5B984AEF420FFC018E
:1018E000E40FF11D4081432309F052C159985B9ADE
:1018F0005B9849EF420FFC01E40FF11D4081432347
:1019000089F559985B9A5B9828505A9A2F3F89F12C
:101910005A98FC01E20FF11D4081432309F49ECF48
:10192000599A9DCF599A1FCD599A11CD599A03CDE5
:10193000599AF5CC599AE7CC599AD9CCB7E0EB9F94
:10194000F0011124EC5BFE4FA281B3814C9121E0A8
:1019500030E0068002C0220F331F0A94E2F7242BE6
:101960002C935ECD599A5B9A5B9828505A9A2F3FD8
:1019700079F6A4E0B1E09E838D83ED91EE2301F131
:10198000EC3CD8F727E0E29FF0011124AF014C5B5B
:101990005E4F2A01FA0142815381FA01308181E0D0
:1019A00090E0F201068002C0880F991F0A94E2F7C6
:1019B000282F20952323FA012083ED91E111E0CF18
:1019C0008D819E81D101ED911D01EC3C08F4ECC0AC
:1019D000209100013091010137FD09C0EFE9FFE0DE
:1019E0003197F1F700C0000021503109B8F7A4E0A9
:1019F000B1E09E838D83ED91EE2301F1EC3CD8F7AD
:101A000027E0E29FF0011124AF014C5B5E4F2A01F9
:101A1000FA0142815381FA01308181E090E0F201C4
:101A2000068002C0880F991F0A94E2F7282F20959C
:101A30002323FA012083ED91E111E0CF8D819E8176
:101A400029E030E05A9859985B9A5B9859985B9ACC
:101A50005B9859985B9A5B9859985B9A5B985998F0
:101A60005B9A5B9859985B9A5B9859985B9A5B98DC
:101A700059985B9A5B985A9A2150310919F76F5F10
:101A80007F4F6730710509F0E1CEAA94A110D8CE3E
:101A9000FFEF8F1A9F0A28E08216910409F0AFCE5B
:101AA0008091020190910301F2E3AF2EA4E08A2E0F
:101AB000A1E09A2E60E070E031E0062E01C0330F05
:101AC0000A94EAF72FE35AC059985B9A5B984FEF54
:101AD000420FFC01E40FF11D4081432309F0DCC1FA
:101AE00059985B9A5B984EEF420FFC01E40FF11D91
:101AF0004081432309F0CEC159985B9A5B984DEF22
:101B0000420FFC01E40FF11D4081432309F0C0C1E5
:101B100059985B9A5B984CEF420FFC01E40FF11D62
:101B20004081432309F0B2C159985B9A5B984BEF0F
:101B3000420FFC01E40FF11D4081432309F0A4C1D1
:101B400059985B9A5B984AEF420FFC01E40FF11D34
:101B50004081432309F096C159985B9A5B9849EFFD
:101B6000420FFC01E40FF11D4081432389F5599890
:101B70005B9A5B9828505A9A2F3F89F15A98FC013A
:101B8000E20FF11D4081432309F49ECF599A9DCF66
:101B9000599AADCE599A9FCE599A91CE599A83CEE1
:101BA000599A75CE599A67CEB7E0EB9FF001112490
:101BB000EC5BFE4FA281B3814C9121E030E00680C6
:101BC00002C0220F331F0A94E2F7242B2C9300CF7C
:101BD000599A5B9A5B9828505A9A2F3F79F6A4E05D
:101BE000B1E0ED91EE2309F1EC3CD8F737E0E39F4B
:101BF000F0011124AF014C5B5E4F2A01FA014281D2
:101C00005381FA01308122242394312CF201068081
:101C100002C0220C331C0A94E2F7222D20952323C4
:101C2000FA012083ED91E111DFCFD401ED914D0157
:101C3000EC3C08F433C1209100013091010137FDE3
:101C400009C0EFE9FFE03197F1F700C00000215033
:101C50003109B8F7A4E0B1E0ED91EE2309F1EC3CD5
:101C6000D8F727E0E29FF0011124AF014C5B5E4FF3
:101C70002A01FA0142815381FA01308122242394FE
:101C8000312CF201068002C0220C331C0A94E2F7C8
:101C9000222D20952323FA012083ED91E111DFCF3E
:101CA00029E030E05A9859985B9A5B9859985B9A6A
:101CB0005B9859985B9A5B9859985B9A5B9859988E
:101CC0005B9A5B9859985B9A5B9859985B9A5B987A
:101CD00059985B9A5B985A9A2150310919F76F5FAE
:101CE0007F4F6730710509F0E7CEAA94A110DECED0
:101CF000D801EB2D1D92EA95E9F72BE031E03C830A
:101D00002B83A0E5B2E0F90181919F01882351F175
:101D1000805245E0849FC0011124FC01E859FF4F27
:101D2000E491EC93FC01E759FF4FE4911196EC9399
:101D30001197FC01E659FF4FE4911296EC9312972C
:101D4000FC01E559FF4FE4911396EC931397FC01C6
:101D5000E459FF4F849114968C93149716966A1643
:101D60007B0689F6912CA0E5B2E080E090E02D9111
:101D7000E0910201F0910301E80FF91F2083019621
:101D80009816A8F7892DE0910201F0910301E80F60
:101D9000F11D10828F5F8034B1F7FAE08F2EF4E0EE
:101DA0004F2EF1E05F2E20E030E091E0022E01C0E6
:101DB000990F0A94EAF78FE35AC059985B9A5B9897
:101DC000EFEFE80FF0E0E057FD4F4081492309F0C5
:101DD000C1C159985B9A5B98EEEFE80FF0E0E057CD
:101DE000FD4F4081492309F0B3C159985B9A5B9834
:101DF000EDEFE80FF0E0E057FD4F4081492309F097
:101E0000A5C159985B9A5B98ECEFE80FF0E0E057BA
:101E1000FD4F4081492309F097C159985B9A5B981F
:101E2000EBEFE80FF0E0E057FD4F4081492309F068
:101E300089C159985B9A5B98EAEFE80FF0E0E057A8
:101E4000FD4F4081492309F07BC159985B9A5B980B
:101E5000E9EFE80FF0E0E057FD4F4081492391F5AD
:101E600059985B9A5B9888505A9A8F3F91F15A988B
:101E7000E82FF0E0E057FD4F4081492309F49DCF62
:101E8000599A9CCF599A69CE599A5BCE599A4DCEA0
:101E9000599A3FCE599A31CE599A23CEB7E0EB9F4B
:101EA000F0011124EC5BFE4FA281B3814C9121E043
:101EB00030E0068002C0220F331F0A94E2F7242B81
:101EC0002C93B9CE599A5B9A5B9888505A9A8F3F57
:101ED00071F6A4E0B1E0ED91EE2301F1EC3CD8F70E
:101EE00047E0E49FF0011124BF016C5B7E4FFB01D2
:101EF00042815381FA01908122242394312CFB01E9
:101F0000068002C0220C331C0A94E2F7822D8095D1
:101F10008923FA018083ED91E111E0CFD201ED91A7
:101F20002D01EC3C08F418C1809100019091010151
:101F300097FD08C0EFE9FFE03197F1F700C000001E
:101F40000197C0F7A4E0B1E0ED91EE2301F1EC3C84
:101F5000D8F747E0E49FF0011124BF016C5B7E4F8E
:101F6000FB0142815381FA01908122242394312C78
:101F7000FB01068002C0220C331C0A94E2F7822D7A
:101F800080958923FA018083ED91E111E0CF89E00A
:101F900090E05A9859985B9A5B9859985B9A5B982D
:101FA00059985B9A5B9859985B9A5B9859985B9A99
:101FB0005B9859985B9A5B9859985B9A5B9859988B
:101FC0005B9A5B985A9A019721F72F5F3F4F273012
:101FD000310509F0EACE8A948110E1CE9394F0E4C1
:101FE0009F12C1CED8011D929A94E9F7E0E5F2E084
:101FF000FA83E983DF012BE031E0F90181919F0150
:10200000882351F18052F5E08F9FC0011124FC011B
:10201000E859FF4FE491EC93FC01E759FF4FE4913D
:102020001196EC931197FC01E659FF4FE49112963B
:10203000EC931297FC01E559FF4FE4911396EC9352
:102040001397FC01E459FF4F849114968C931497D5
:1020500016966A167B0689F672E3A4E08A2EA1E042
:102060009A2E80E090E031E0082E01C0330F0A94F0
:10207000EAF72FE35AC059985B9A5B98EFEFE20FAB
:10208000F0E0E05BFD4F4081432309F0E1C1599846
:102090005B9A5B98EEEFE20FF0E0E05BFD4F408172
:1020A000432309F0D3C159985B9A5B98EDEFE20F97
:1020B000F0E0E05BFD4F4081432309F0C5C1599832
:1020C0005B9A5B98ECEFE20FF0E0E05BFD4F408144
:1020D000432309F0B7C159985B9A5B98EBEFE20F85
:1020E000F0E0E05BFD4F4081432309F0A9C159981E
:1020F0005B9A5B98EAEFE20FF0E0E05BFD4F408116
:10210000432309F09BC159985B9A5B98E9EFE20F72
:10211000F0E0E05BFD4F4081432391F559985B9AD5
:102120005B9828505A9A2F3F91F15A98E22FF0E08D
:10213000E05BFD4F4081432309F49DCF599A9CCF2A
:10214000599A84CE599A76CE599A68CE599A5ACECF
:10215000599A4CCE599A3ECEB7E0EB9FF00111242C
:10216000EC5BFE4FA281B3816C9141E050E00680B0
:1021700002C0440F551F0A94E2F7462B4C93D4CE6D
:10218000599A5B9A5B9828505A9A2F3F71F6A4E0AF
:10219000B1E0A72EED91EE2301F1EC3CD8F727E05A
:1021A000E29FF0011124BF016C5B7E4FFB01428175
:1021B0005381FA01308122242394312CFB010680C3
:1021C00002C0220C331C0A94E2F7222D209523230F
:1021D000FA012083ED91E111E0CF7A2DD401ED9148
:1021E0004D01EC3C08F436C1209100013091010111
:1021F00037FD09C0EFE9FFE03197F1F700C00000BB
:1022000021503109B8F7A4E0B1E0A72EED91EE23FB
:1022100001F1EC3CD8F727E0E29FF0011124BF0167
:102220006C5B7E4FFB0142815381FA013081222495
:102230002394312CFB01068002C0220C331C0A942B
:10224000E2F7222D20952323FA012083ED91E1115D
:10225000E0CF7A2D29E030E05A9859985B9A5B9844
:1022600059985B9A5B9859985B9A5B9859985B9AD6
:102270005B9859985B9A5B9859985B9A5B985998C8
:102280005B9A5B9859985B9A5B985A9A21503109EE
:1022900019F701968730910509F0E5CE715009F0E4
:1022A000DCCED801EB2D1D92EA95E9F7AB81BC811C
:1022B0008D91BC83AB83882361F18052F5E08F9FC1
:1022C000C0011124FC01E859FF4FE491D701EC93C0
:1022D000FC01E759FF4FE4911196EC931197FC0133
:1022E000E659FF4FE4911296EC931297FC01E559E1
:1022F000FF4FE4911396EC93FC01E459FF4F849156
:10230000F7018483F6E0EF0EF11C6E147F0409F0F0
:10231000CDCFAFE3EA2E40E0842F90E0FC01E05BFC
:10232000FD4F20816091020170910301FB01E80FD4
:10233000F91F20834F5FE41678F7EA948E2DE09121
:102340000201F0910301E80FF11D10828F5F8034CC
:10235000B1F7FAE0AF2EB4E08B2EB1E09B2E20E077
:1023600030E091E0022E01C0990F0A94EAF78FE362
:102370005AC059985B9A5B98EFEFE80FF0E0E0578E
:10238000FD4F4081492309F085C159985B9A5B98BC
:10239000EEEFE80FF0E0E057FD4F4081492309F0F0
:1023A00077C159985B9A5B98EDEFE80FF0E0E05742
:1023B000FD4F4081492309F069C159985B9A5B98A8
:1023C000ECEFE80FF0E0E057FD4F4081492309F0C2
:1023D0005BC159985B9A5B98EBEFE80FF0E0E05730
:1023E000FD4F4081492309F04DC159985B9A5B9894
:1023F000EAEFE80FF0E0E057FD4F4081492309F094
:102400003FC159985B9A5B98E9EFE80FF0E0E0571D
:10241000FD4F4081492391F559985B9A5B9888500C
:102420005A9A8F3F91F15A98E82FF0E0E057FD4F0C
:102430004081492309F49DCF599A9CCF599A64CE83
:10244000599A56CE599A48CE599A3ACE599A2CCE84
:10245000599A1ECEB7E0EB9FF0011124EC5BFE4FC2
:10246000A281B3814C9121E030E0068002C0220FAE
:10247000331F0A94E2F7242B2C93B6CE599A5B9A19
:102480005B9888505A9A8F3F71F6A4E0B1E0ED91C5
:10249000EE2301F1EC3CD8F747E0E49FF001112472
:1024A000BF016C5B7E4FFB0142815381FA01908139
:1024B00022242394312CFB01068002C0220C331C01
:1024C0000A94E2F7822D80958923FA018083ED91A9
:1024D000E111E0CFD401ED914D01EC3C08F4DCC0FA
:1024E000809100019091010197FD08C0EFE9FFE0A4
:1024F0003197F1F700C000000197C0F7A4E0B1E008
:10250000ED91EE2301F1EC3CD8F747E0E49FF001B8
:102510001124BF016C5B7E4FFB0142815381FA01A4
:10252000908122242394312CFB01068002C0220CCE
:10253000331C0A94E2F7822D80958923FA01808367
:10254000ED91E111E0CF89E090E05A9859985B9ABB
:102550005B9859985B9A5B9859985B9A5B985998E5
:102560005B9A5B9859985B9A5B9859985B9A5B98D1
:1025700059985B9A5B9859985B9A5B985A9A01971D
:1025800021F72F5F3F4F2730310509F0EACEAA949B
:10259000A110E1CEE110BFCE7AE0F4E0EF2EF1E041
:1025A000FF2E80E090E031E0082E01C0330F0A9446
:1025B000EAF72FE35AC059985B9A5B98EFEFE20F66
:1025C000F0E0E057FD4F4081432309F022C25998C3
:1025D0005B9A5B98EEEFE20FF0E0E057FD4F408131
:1025E000432309F014C259985B9A5B98EDEFE20F10
:1025F000F0E0E057FD4F4081432309F006C25998AF
:102600005B9A5B98ECEFE20FF0E0E057FD4F408102
:10261000432309F0F8C159985B9A5B98EBEFE20FFE
:10262000F0E0E057FD4F4081432309F0EAC159989B
:102630005B9A5B98EAEFE20FF0E0E057FD4F4081D4
:10264000432309F0DCC159985B9A5B98E9EFE20FEC
:10265000F0E0E057FD4F4081432391F559985B9A94
:102660005B9828505A9A2F3F91F15A98E22FF0E048
:10267000E057FD4F4081432309F49DCF599A9CCFE9
:10268000599AC0CE599AB2CE599AA4CE599A96CE9A
:10269000599A88CE599A7ACEB7E0EB9FF00111246F
:1026A000EC5BFE4FA281B3814C9181E090E006800B
:1026B00002C0880F991F0A94E2F7842B8C9310CFE5
:1026C000599A5B9A5B9828505A9A2F3F71F6A4E06A
:1026D000B1E0372FED91EE2301F1EC3CD8F727E084
:1026E000E29FF0011124BF016C5B7E4FFB01428130
:1026F0005381FA01208122242394312CFB0106808E
:1027000002C0220C331C0A94E2F7B1016095262323
:10271000FA012083ED91E111E0CF732FD701ED9104
:102720007D01EC3C98F4B7E0EB9FF0011124EC5BE9
:10273000FE4FA281B3814C9121E030E0068002C0BF
:10274000220F331F0A94E2F7242B2C9320910001CF
:102750003091010137FD09C0EFE9FFE03197F1F752
:1027600000C0000021503109B8F7A4E0B1E0372FD4
:10277000ED91EE2301F1EC3CD8F727E0E29FF00168
:102780001124BF016C5B7E4FFB0142815381FA0132
:10279000208122242394312CFB01068002C0220CCC
:1027A000331C0A94E2F7B10160952623FA012083D5
:1027B000ED91E111E0CF732F29E030E05A9859985C
:1027C0005B9A5B9859985B9A5B9859985B9A5B986F
:1027D00059985B9A5B9859985B9A5B9859985B9A61
:1027E0005B9859985B9A5B9859985B9A5B985A9A50
:1027F0002150310919F701968730910509F0D3CEA0
:10280000715009F0CACED801EB2D1D92EA95E9F777
:10281000E7E6F1E0849180936002E8E6F1E08491DC
:1028200080936102E9E6F1E0849180936202EAE636
:10283000F1E0849180936302EBE6F1E08491809370
:102840006402E0E3F1E0849180936602E1E3F1E069
:10285000849180936702E2E3F1E0849180936802BF
:10286000E3E3F1E0849180936902E4E3F1E0849191
:1028700080936A02EDE0F1E0849180936C02EEE0D7
:10288000F1E0849180936D02EFE0F1E08491809318
:102890006E02E0E1F1E0849180936F02E1E1F1E00A
:1028A000849180937002E2E6F1E084918093720259
:1028B000E3E6F1E0849180937302E4E6F1E0849131
:1028C00080937402E5E6F1E0849180937502E6E678
:1028D000F1E0849180937602E1E2F1E084918093CB
:1028E0007802E2E2F1E0849180937902E3E2F1E0A0
:1028F000849180937A02E4E2F1E0849180937B02F8
:10290000E5E2F1E0849180937C0284E690E090938C
:1029100001018093000174E6B4E0EB2EB1E0FB2EE0
:1029200080E090E031E0082E01C0330F0A94EAF70E
:102930002FE35AC059985B9A5B98EFEFE20FF0E0F3
:10294000E05BFD4F4081432309F0A2C259985B9A96
:102950005B98EEEFE20FF0E0E05BFD4F4081432338
:1029600009F094C259985B9A5B98EDEFE20FF0E0A2
:10297000E05BFD4F4081432309F086C259985B9A82
:102980005B98ECEFE20FF0E0E05BFD4F408143230A
:1029900009F078C259985B9A5B98EBEFE20FF0E090
:1029A000E05BFD4F4081432309F06AC259985B9A6E
:1029B0005B98EAEFE20FF0E0E05BFD4F40814323DC
:1029C00009F05CC259985B9A5B98E9EFE20FF0E07E
:1029D000E05BFD4F40814323F1F459985B9A5B988B
:1029E00028505A9A2F3FF1F05A98E22FF0E0E05B1E
:1029F000FD4F4081432309F49DCF599A9CCF599AAA
:102A000023CE599A15CE599A07CE599AF9CD599A8B
:102A1000EBCD599ADDCD599A5B9A5B9828505A9A1A
:102A20002F3F11F7A4E0B1E0A72EED91EE2301F1C5
:102A3000EC3CD8F727E0E29FF0011124BF016C5B6A
:102A40007E4FFB0142815381FA013081222423947D
:102A5000312CFB01068002C0220C331C0A94E2F7E1
:102A6000222D20952323FA012083ED91E111E0CF5F
:102A70007A2DD701ED917D01EC3C08F40BC2209139
:102A800000013091010137FD09C0EFE9FFE0319706
:102A9000F1F700C0000021503109B8F7A4E0B1E01F
:102AA000A72EED91EE2301F1EC3CD8F727E0E29F51
:102AB000F0011124BF016C5B7E4FFB014281538109
:102AC000FA01308122242394312CFB01068002C0BC
:102AD000220C331C0A94E2F7222D20952323FA01BD
:102AE0002083ED91E111E0CF7A2D29E030E05A9872
:102AF00059985B9A5B9859985B9A5B9859985B9A3E
:102B00005B9859985B9A5B9859985B9A5B9859982F
:102B10005B9A5B9859985B9A5B9859985B9A5B981B
:102B20005A9A2150310919F701968730910509F019
:102B3000F9CE715009F0F0CED801EB2D1D92EA9537
:102B4000E9F7E7E6F1E0849180936002E8E6F1E0DE
:102B5000849180936102E9E6F1E0849180936202BE
:102B6000EAE6F1E0849180936302EBE6F1E0849180
:102B700080936402E0E3F1E0849180936602E1E3F4
:102B8000F1E0849180936702E2E3F1E08491809325
:102B90006802E3E3F1E0849180936902E4E3F1E009
:102BA000849180936A02EDE0F1E0849180936C025D
:102BB000EEE0F1E0849180936D02EFE0F1E084912A
:102BC00080936E02E0E1F1E0849180936F02E1E195
:102BD000F1E0849180937002E2E6F1E084918093C9
:102BE0007202E3E6F1E0849180937302E4E6F1E09F
:102BF000849180937402E5E6F1E0849180937502FC
:102C0000E6E6F1E0849180937602E1E2F1E08491DE
:102C100080937802E2E2F1E0849180937902E3E22A
:102C2000F1E0849180937A02E4E2F1E08491809370
:102C30007B02E5E2F1E0849180937C02A2E3FA2E2C
:102C400080E592E00E944101FA94F110F9CFD80199
:102C5000EB2D1D92EA95E9F7E7E6F1E08491809388
:102C60006002E8E6F1E0849180936102E9E6F1E038
:102C7000849180936202EAE6F1E08491809363029A
:102C8000EBE6F1E0849180936402E0E3F1E084916B
:102C900080936602E1E3F1E0849180936702E2E3CE
:102CA000F1E0849180936802E3E3F1E08491809302
:102CB0006902E4E3F1E0849180936A02EDE0F1E0DF
:102CC000849180936C02EEE0F1E0849180936D0238
:102CD000EFE0F1E0849180936E02E0E1F1E0849115
:102CE00080936F02E1E1F1E0849180937002E2E66B
:102CF000F1E0849180937202E3E6F1E084918093A5
:102D00007302E4E6F1E0849180937402E5E6F1E079
:102D1000849180937502E6E6F1E0849180937602D7
:102D2000E1E2F1E0849180937802E2E2F1E08491C3
:102D300080937902E3E2F1E0849180937A02E4E205
:102D4000F1E0849180937B02E5E2F1E0849180934D
:102D50007C0240E080E090E0E0910201F09103010C
:102D6000E80FF91F108201964817B0F7542F852FEE
:102D700090E0FC01E05BFD4F2081609102017091C9
:102D80000301FB01E80FF91F20835F5F503479F7DF
:102D9000FAE0FF2E5F2DB4E08B2EB1E09B2E20E0F9
:102DA00030E091E0022E01C0990F0A94EAF78FE318
:102DB0005AC059985B9A5B98EFEFE80FF0E0E05744
:102DC000FD4F6081692309F0E7C159985B9A5B98D0
:102DD000EEEFE80FF0E0E057FD4F6081692309F066
:102DE000D9C159985B9A5B98EDEFE80FF0E0E05796
:102DF000FD4F6081692309F0CBC159985B9A5B98BC
:102E0000ECEFE80FF0E0E057FD4F6081692309F037
:102E1000BDC159985B9A5B98EBEFE80FF0E0E05783
:102E2000FD4F6081692309F0AFC159985B9A5B98A7
:102E3000EAEFE80FF0E0E057FD4F6081692309F009
:102E4000A1C159985B9A5B98E9EFE80FF0E0E05771
:102E5000FD4F6081692391F559985B9A5B98885082
:102E60005A9A8F3F91F15A98E82FF0E0E057FD4FC2
:102E70006081692309F49DCF599A9CCF599AA3CDBB
:102E8000599A95CD599A87CD599A79CD599A6BCD42
:102E9000599A5DCDB7E0EB9FF0011124EC5BFE4F3A
:102EA000A281B3814C9121E030E0068002C0220F64
:102EB000331F0A94E2F7242B2C93E1CD599A5B9AA5
:102EC0005B9888505A9A8F3F71F6A4E0B1E0ED917B
:102ED000EE2309F1EC3CD8F767E0E69FF0011124FE
:102EE000CF018C5B9E4F2C01FC0162817381FB0141
:102EF0009081EE24E394F12CF201068002C0EE0CE6
:102F0000FF1C0A94E2F78E2D80958923FB018083B4
:102F1000ED91E111DFCFD401ED914D01EC3C08F4CE
:102F20003DC1809100019091010197FD08C0EFE93A
:102F3000FFE03197F1F700C000000197C0F7A4E06F
:102F4000B1E0ED91EE2309F1EC3CD8F767E0E69FA4
:102F5000F0011124CF018C5B9E4F2C01FC0162819A
:102F60007381FB019081EE24E394F12CF201068041
:102F700002C0EE0CFF1C0A94E2F78E2D8095892387
:102F8000FB018083ED91E111DFCF89E090E05A9859
:102F900059985B9A5B9859985B9A5B9859985B9A99
:102FA0005B9859985B9A5B9859985B9A5B9859988B
:102FB0005B9A5B9859985B9A5B9859985B9A5B9877
:102FC0005A9A019721F72F5F3F4F2730310509F0BB
:102FD000E8CE515009F0DFCE4F5F403409F0BACE51
:102FE000A1EDB2E0E42F1D92EA95E9F7A0E1B2E08D
:102FF0001D924A95E9F7AAE28A2EA1E09A2ED40101
:103000008D914D01882309F467C18052B5E08B9FF3
:10301000C0011124FC01E859FF4FE491E093110332
:10302000FC01E759FF4FE491E0931203FC01E659DC
:10303000FF4FE491E0931303FC01E559FF4FE49146
:10304000E0931403FC01E459FF4F8491809315032E
:10305000F1E1EF2EF3E0FF2EF70191917F0180E483
:10306000E1EDF2E0A0E1B2E001900D928A95E1F786
:103070009093100380914F0280930F032EE3215011
:10308000822F90E0FC01EF52FD4FDC01A05FBD4FAD
:1030900011968C9180832111F2CFAAE0AA2E24E010
:1030A00031E080E090E051E0082E01C0550F0A9415
:1030B000EAF74FE35CC059985B9A5B98EFEFE40F37
:1030C000F0E0EF52FD4F6081652309F0DAC25998B4
:1030D0005B9A5B98EEEFE40FF0E0EF52FD4F6081FA
:1030E000652309F0CCC259985B9A5B98EDEFE40F29
:1030F000F0E0EF52FD4F6081652309F0BEC25998A0
:103100005B9A5B98ECEFE40FF0E0EF52FD4F6081CB
:10311000652309F0B0C259985B9A5B98EBEFE40F16
:10312000F0E0EF52FD4F6081652309F0A2C259988B
:103130005B9A5B98EAEFE40FF0E0EF52FD4F60819D
:10314000652309F094C259985B9A5B98E9EFE40F04
:10315000F0E0EF52FD4F6081652309F05CC15998A2
:103160005B9A5B9848505A9A4F3F09F45CC15A9851
:10317000E42FF0E0EF52FD4F6081652309F49BCF0F
:10318000599A9ACF599A5ECE599A50CE599A42CEB0
:10319000599A34CE599A26CE599A18CEB7E0EB9F59
:1031A000F0011124EC5BFE4FA281B3816C9181E0B0
:1031B00090E0068002C0880F991F0A94E2F7862BE0
:1031C0008C93AFCEA4E0B1E0ED91EE2301F1EC3CA5
:1031D000D8F747E0E49FF0011124BF016C5B7E4FFC
:1031E000FB0142815381FA01908122242394312CE6
:1031F000FB01068002C0220C331C0A94E2F7822DE8
:1032000080958923FA018083ED91E111E0CFD4010B
:10321000ED914D01EC3C08F436C280910001909193
:10322000010197FD08C0EFE9FFE03197F1F700C019
:1032300000000197C0F7A4E0B1E0ED91EE2301F1A9
:10324000EC3CD8F747E0E49FF0011124BF016C5B30
:103250007E4FFB0142815381FA0190812224239405
:10326000312CFB01068002C0220C331C0A94E2F7C9
:10327000822D80958923FA018083ED91E111E0CFC1
:1032800089E090E05A9859985B9A5B9859985B9AB4
:103290005B9859985B9A5B9859985B9A5B98599898
:1032A0005B9A5B9859985B9A5B9859985B9A5B9884
:1032B00059985B9A5B985A9A019721F72F5F3F4F75
:1032C0002730310579F5EA94E11026C0F1E0CF1AF4
:1032D000D10811F40C949B0280E4E1EDF2E0A0E14E
:1032E000B2E001900D928A95E1F71092100380915F
:1032F0004F0280930F032EE32150822F90E0FC01B8
:10330000EF52FD4FDC01A05FBD4F11968C91808381
:103310002111F2CF9AE0E92E84E0882E81E0982EE8
:1033200020E030E091E0022E01C0990F0A94EAF704
:103330008FE358C059985B9A5B98EFEFE80FF0E085
:10334000EF52FD4F4081492309F063C059985B9AC1
:103350005B98EEEFE80FF0E0EF52FD4F408149231C
:1033600009F055C059985B9A5B98EDEFE80FF0E0D3
:10337000EF52FD4F4081492309F047C059985B9AAD
:103380005B98ECEFE80FF0E0EF52FD4F40814923EE
:10339000D1F559985B9A5B98EBEFE80FF0E0EF52AC
:1033A000FD4F4081492369F559985B9A5B98EAEF94
:1033B000E80FF0E0EF52FD4F4081492301F55998A5
:1033C0005B9A5B98E9EFE80FF0E0EF52FD4F408128
:1033D000492399F459985B9A5B9888505A9A8F3F81
:1033E00009F4F0CE5A98E82FF0E0EF52FD4F4081FB
:1033F000492309F49FCF599A9ECF599AECCF599AF5
:10340000DFCF599AD2CF599AC5CF599AB8CF599A86
:10341000AACF599A9CCF599A5B9A5B9848505A9A6E
:103420004F3F09F0A4CEA4E0B1E0ED91EE2309F105
:10343000EC3CD8F747E0E49FF0011124BF016C5B3E
:103440007E4F2B01FB0162817381FB01508122249D
:103450002394312CF201068002C0220C331C0A9402
:10346000E2F7422D40954523FB014083ED91E111A8
:10347000DFCFD901ED919D01EC3C08F418C14091DA
:1034800000015091010157FD09C0EFE9FFE03197BC
:10349000F1F700C0000041505109B8F7A4E0B1E0D5
:1034A000ED91EE2309F1EC3CD8F747E0E49FF00101
:1034B0001124BF016C5B7E4F2B01FB016281738184
:1034C000FB01508122242394312CF201068002C09A
:1034D000220C331C0A94E2F7422D40954523FB0150
:1034E0004083ED91E111DFCF49E050E05A985998BF
:1034F0005B9A5B9859985B9A5B9859985B9A5B9832
:1035000059985B9A5B9859985B9A5B9859985B9A23
:103510005B9859985B9A5B9859985B9A5B985A9A12
:103520004150510919F701968730910509F0BBCD3B
:10353000AA94A110B4CDF6E12F2EF3E03F2E2E1465
:103540003F0409F089CD80E4E1EDF2E0A0E1B2E0D2
:1035500001900D928A95E1F71092100380914F022D
:1035600080930F038EE38150282F30E0F901EF5252
:10357000FD4FD901A05FBD4F11969C9190838111A1
:10358000F2CF7AE0A4E0EA2EA1E0FA2E80E090E00B
:1035900031E0082E01C0330F0A94EAF72FE35CC034
:1035A00059985B9A5B98EFEFE20FF0E0EF52FD4F16
:1035B0004081432309F02CC159985B9A5B98EEEF48
:1035C000E20FF0E0EF52FD4F4081432309F01EC1AE
:1035D00059985B9A5B98EDEFE20FF0E0EF52FD4FE8
:1035E0004081432309F010C159985B9A5B98ECEF36
:1035F000E20FF0E0EF52FD4F4081432309F002C19A
:1036000059985B9A5B98EBEFE20FF0E0EF52FD4FB9
:103610004081432309F0F4C059985B9A5B98EAEF24
:10362000E20FF0E0EF52FD4F4081432309F0E6C086
:1036300059985B9A5B98E9EFE20FF0E0EF52FD4F8B
:103640004081432309F047C059985B9A5B98285002
:103650005A9A2F3F09F447C05A98E22FF0E0EF52F0
:10366000FD4F4081432309F49BCF599A9ACF599A31
:103670006BCD599A5DCD599A4FCD599A41CD599AF2
:1036800033CD599A25CDB7E0EB9FF0011124EC5BC7
:10369000FE4FA281B3814C9181E090E0068002C090
:1036A000880F991F0A94E2F7842B8C93B6CDB7E06C
:1036B000EB9FF0011124EC5BFE4FA281B3816C9172
:1036C00041E050E0068002C0440F551F0A94E2F723
:1036D000462B4C93D4CE599A5B9A5B9828505A9AB1
:1036E0002F3F09F0B9CFA4E0B1E0A72EED91EE2372
:1036F00001F1EC3CD8F727E0E29FF0011124BF0173
:103700006C5B7E4FFB0142815381FA0130812224A0
:103710002394312CFB01068002C0220C331C0A9436
:10372000E2F7222D20952323FA012083ED91E11168
:10373000E0CF7A2DD701ED917D01EC3C08F46AC011
:10374000209100013091010137FD09C0EFE9FFE050
:103750003197F1F700C0000021503109B8F7A4E01B
:10376000B1E0A72EED91EE2301F1EC3CD8F727E074
:10377000E29FF0011124BF016C5B7E4FFB0142818F
:103780005381FA01308122242394312CFB010680DD
:1037900002C0220C331C0A94E2F7222D2095232329
:1037A000FA012083ED91E111E0CF7A2D29E030E09C
:1037B0005A9859985B9A5B9859985B9A5B98599874
:1037C0005B9A5B9859985B9A5B9859985B9A5B985F
:1037D00059985B9A5B9859985B9A5B9859985B9A51
:1037E0005B985A9A2150310919F701968730910553
:1037F00009F0CECE715009F0C5CE01CC599A19CF3F
:10380000599A0BCF599AFDCE599AEFCE599AE1CEDB
:10381000599AD3CEB7E0EB9FF0011124EC5BFE4F39
:10382000A281B3814C9121E030E0068002C0220FDA
:10383000331F0A94E2F7242B2C9382CFF894FFCF06
:10384000010090020C0D0E0F1011124A4F494E004C
:103850004D414B45004D414B454841434B53004D75
:10386000414B45524841434B53004D414B45524813
:1038700041434B53206279204D5543484952494AB0
:103880004F484E00000000000000002700280026DE
:1038900000062A002B002900002A002B0029000125
:1038A0002A002B002900022A002B002900032A00ED
:1038B0002B002900040000000000000000000000B0
:1038C000000000240025002300062400250023001A
:1038D000072A002B002900052A002B002900062AB0
:1038E000002B0029000724002500230000240025C8
:1038F00000230001240025002300022400250023CA
:1039000000032400250023000424002500230005D3
:1039100000000000000000000000000000000000A7
:1039200000000000002700280026000027002800D3
:103930002600012700280026000227002800260074
:103940000327002800260004270028002600050081
:00000001FF
